{
  "abi": [
    {
      "inputs": [
        {
          "internalType": "address",
          "name": "",
          "type": "address"
        }
      ],
      "name": "proxies",
      "outputs": [
        {
          "internalType": "contract OwnableDelegateProxy",
          "name": "",
          "type": "address"
        }
      ],
      "stateMutability": "view",
      "type": "function"
    }
  ],
  "bytecode": "608060405234801561001057600080fd5b5060d38061001f6000396000f3fe6080604052348015600f57600080fd5b506004361060285760003560e01c8063c455279114602d575b600080fd5b60536038366004606f565b6000602081905290815260409020546001600160a01b031681565b6040516001600160a01b03909116815260200160405180910390f35b600060208284031215608057600080fd5b81356001600160a01b0381168114609657600080fd5b939250505056fea2646970667358221220501a8f56cd4a9a62bb3a639537b4e90c3f040b0fd4a0188521e030b0f7155e7b64736f6c634300080d0033",
  "bytecodeSha1": "608638f6acaec91c90ff89e3cf3ab07429b3672a",
  "compiler": {
    "evm_version": "istanbul",
    "optimizer": {
      "enabled": true,
      "runs": 200
    },
    "version": "0.8.13+commit.abaa5c0e"
  },
  "contractName": "ProxyRegistry",
  "language": "Solidity",
  "natspec": {
    "kind": "dev",
    "methods": {},
    "version": 1
  },
  "opcodes": "PUSH1 0x80 PUSH1 0x40 MSTORE CALLVALUE DUP1 ISZERO PUSH1 0xF JUMPI PUSH1 0x0 DUP1 REVERT JUMPDEST POP PUSH1 0x4 CALLDATASIZE LT PUSH1 0x28 JUMPI PUSH1 0x0 CALLDATALOAD PUSH1 0xE0 SHR DUP1 PUSH4 0xC4552791 EQ PUSH1 0x2D JUMPI JUMPDEST PUSH1 0x0 DUP1 REVERT JUMPDEST PUSH1 0x53 PUSH1 0x38 CALLDATASIZE PUSH1 0x4 PUSH1 0x6F JUMP JUMPDEST PUSH1 0x0 PUSH1 0x20 DUP2 SWAP1 MSTORE SWAP1 DUP2 MSTORE PUSH1 0x40 SWAP1 KECCAK256 SLOAD PUSH1 0x1 PUSH1 0x1 PUSH1 0xA0 SHL SUB AND DUP2 JUMP JUMPDEST PUSH1 0x40 MLOAD PUSH1 0x1 PUSH1 0x1 PUSH1 0xA0 SHL SUB SWAP1 SWAP2 AND DUP2 MSTORE PUSH1 0x20 ADD PUSH1 0x40 MLOAD DUP1 SWAP2 SUB SWAP1 RETURN JUMPDEST PUSH1 0x0 PUSH1 0x20 DUP3 DUP5 SUB SLT ISZERO PUSH1 0x80 JUMPI PUSH1 0x0 DUP1 REVERT JUMPDEST DUP2 CALLDATALOAD PUSH1 0x1 PUSH1 0x1 PUSH1 0xA0 SHL SUB DUP2 AND DUP2 EQ PUSH1 0x96 JUMPI PUSH1 0x0 DUP1 REVERT JUMPDEST SWAP4 SWAP3 POP POP POP JUMP INVALID LOG2 PUSH5 0x6970667358 0x22 SLT KECCAK256 POP BYTE DUP16 JUMP 0xCD 0x4A SWAP11 PUSH3 0xBB3A63 SWAP6 CALLDATACOPY 0xB4 0xE9 0xC EXTCODEHASH DIV SIGNEXTEND 0xF 0xD4 LOG0 XOR DUP6 0x21 0xE0 ADDRESS 0xB0 0xF7 ISZERO 0x5E PUSH28 0x64736F6C634300080D00330000000000000000000000000000000000 ",
  "sha1": "2cc5eff1f767329a5342701c11f2a903a68c4a12",
  "source": "// SPDX-License-Identifier: MIT\n\npragma solidity ^0.8.0;\n\nimport \"@openzeppelin/contracts/token/ERC721/ERC721.sol\";\nimport \"@openzeppelin/contracts/token/ERC721/extensions/ERC721URIStorage.sol\";\nimport \"@openzeppelin/contracts/utils/Counters.sol\";\nimport \"@openzeppelin/contracts/access/Ownable.sol\";\n\nimport \"./common/meta-transactions/ContentMixin.sol\";\nimport \"./common/meta-transactions/NativeMetaTransaction.sol\";\n\ncontract OwnableDelegateProxy {}\n\ncontract ProxyRegistry {\n    mapping(address => OwnableDelegateProxy) public proxies;\n}\n\n// W3rdle smart contract\ncontract W3rdl3 is\n    ERC721URIStorage,\n    Ownable,\n    ContextMixin,\n    NativeMetaTransaction\n{\n    using Counters for Counters.Counter;\n    Counters.Counter public _tokenId;\n\n    uint256 public ongoingMintPrice;\n    address proxyRegistryAddress;\n    mapping(address => bool) public minterMap;\n    mapping(bytes5 => bool) public wordMap;\n    mapping(uint8 => uint256) private rebates;\n    string private baseURI;\n\n    constructor(\n        string memory _name,\n        string memory _symbol,\n        string memory _baseURI,\n        uint256 _ongoingMintPrice,\n        address _proxyRegistryAddress\n    ) ERC721(_name, _symbol) {\n        baseURI = _baseURI;\n        ongoingMintPrice = _ongoingMintPrice;\n\n        _tokenId.increment();\n        _initializeEIP712(_name);\n\n        proxyRegistryAddress = _proxyRegistryAddress;\n\n        rebates[1] = 0.0005 ether;\n        rebates[2] = 0.0004 ether;\n        rebates[3] = 0.0003 ether;\n        rebates[4] = 0.0002 ether;\n        rebates[5] = 0.0001 ether;\n    }\n\n    function mintPriceCheck() internal {\n        if (_tokenId.current() & 0x3FF == 0) {\n            ongoingMintPrice += 0.001 ether;\n        }\n    }\n\n    function register() public payable {\n        require(\n            msg.value >= ongoingMintPrice,\n            \"Failed: Please pay the appropriate ONGOINT_MINT_PRICE fee\"\n        );\n        minterMap[msg.sender] = true;\n        mintPriceCheck();\n    }\n\n    function mintWord(uint8 tries, bytes5 word)\n        public\n        payable\n        returns (uint256)\n    {\n        require(\n            minterMap[msg.sender] == true,\n            \"Player not allowed to mint. Please pay the appropriate ONGOINT_MINT_PRICE fee before minting\"\n        );\n        require(\n            wordMap[word] == false,\n            \"The word has already been minted by another player\"\n        );\n        require(msg.sender == tx.origin, \"No Bots\"); // block smart contracts from minting\n\n        minterMap[msg.sender] = false;\n        wordMap[word] = true;\n\n        uint256 newItemId = _tokenId.current();\n        string memory _tokenURI;\n\n        _tokenId.increment();\n        _tokenURI = string(bytes.concat(bytes(baseURI), word, \"-config.json\"));\n\n        _safeMint(msg.sender, newItemId);\n        _setTokenURI(newItemId, _tokenURI);\n\n        if (rebates[tries] > 0) {\n            payable(msg.sender).transfer(rebates[tries]);\n        }\n        return newItemId;\n    }\n\n    function withdraw(uint256 amount) public payable onlyOwner {\n        payable(msg.sender).transfer(amount);\n    }\n\n    function withdrawAll() public payable onlyOwner {\n        payable(msg.sender).transfer(address(this).balance);\n    }\n\n    // Override approval to save gas\n    function isApprovedForAll(address owner, address operator)\n        public\n        view\n        override\n        returns (bool)\n    {\n        ProxyRegistry proxyRegistry = ProxyRegistry(proxyRegistryAddress);\n        if (address(proxyRegistry.proxies(owner)) == operator) {\n            return true;\n        }\n\n        return super.isApprovedForAll(owner, operator);\n    }\n\n    // Make opensea proxy pay for some txns\n    function _msgSender() internal view override returns (address sender) {\n        return ContextMixin.msgSender();\n    }\n}\n\n//  ██▀███   ██▓  ▄████  ▒█████   ██▀███   ██▓ ██▓     ██▓    ▄▄▄\n// ▓██ ▒ ██▒▓██▒ ██▒ ▀█▒▒██▒  ██▒▓██ ▒ ██▒▓██▒▓██▒    ▓██▒   ▒████▄\n// ▓██ ░▄█ ▒▒██▒▒██░▄▄▄░▒██░  ██▒▓██ ░▄█ ▒▒██▒▒██░    ▒██░   ▒██  ▀█▄\n// ▒██▀▀█▄  ░██░░▓█  ██▓▒██   ██░▒██▀▀█▄  ░██░▒██░    ▒██░   ░██▄▄▄▄██\n// ░██▓ ▒██▒░██░░▒▓███▀▒░ ████▓▒░░██▓ ▒██▒░██░░██████▒░██████▒▓█   ▓██▒\n// ░ ▒▓ ░▒▓░░▓   ░▒   ▒ ░ ▒░▒░▒░ ░ ▒▓ ░▒▓░░▓  ░ ▒░▓  ░░ ▒░▓  ░▒▒   ▓▒█░\n//   ░▒ ░ ▒░ ▒ ░  ░   ░   ░ ▒ ▒░   ░▒ ░ ▒░ ▒ ░░ ░ ▒  ░░ ░ ▒  ░ ▒   ▒▒ ░\n//   ░░   ░  ▒ ░░ ░   ░ ░ ░ ░ ▒    ░░   ░  ▒ ░  ░ ░     ░ ░    ░   ▒\n//    ░      ░        ░     ░ ░     ░      ░      ░  ░    ░  ░     ░  ░\n",
  "sourcePath": "contracts/W3rdl3.sol",
  "type": "contract"
}