{
  "abi": [
    {
      "inputs": [
        {
          "internalType": "string",
          "name": "_name",
          "type": "string"
        },
        {
          "internalType": "string",
          "name": "_symbol",
          "type": "string"
        },
        {
          "internalType": "string",
          "name": "_baseURI",
          "type": "string"
        },
        {
          "internalType": "uint256",
          "name": "_ongoingMintPrice",
          "type": "uint256"
        },
        {
          "internalType": "address",
          "name": "_wethAddress",
          "type": "address"
        },
        {
          "internalType": "address",
          "name": "_proxyRegistryAddress",
          "type": "address"
        }
      ],
      "stateMutability": "nonpayable",
      "type": "constructor"
    },
    {
      "anonymous": false,
      "inputs": [
        {
          "indexed": true,
          "internalType": "address",
          "name": "owner",
          "type": "address"
        },
        {
          "indexed": true,
          "internalType": "address",
          "name": "approved",
          "type": "address"
        },
        {
          "indexed": true,
          "internalType": "uint256",
          "name": "tokenId",
          "type": "uint256"
        }
      ],
      "name": "Approval",
      "type": "event"
    },
    {
      "anonymous": false,
      "inputs": [
        {
          "indexed": true,
          "internalType": "address",
          "name": "owner",
          "type": "address"
        },
        {
          "indexed": true,
          "internalType": "address",
          "name": "operator",
          "type": "address"
        },
        {
          "indexed": false,
          "internalType": "bool",
          "name": "approved",
          "type": "bool"
        }
      ],
      "name": "ApprovalForAll",
      "type": "event"
    },
    {
      "anonymous": false,
      "inputs": [
        {
          "indexed": false,
          "internalType": "address",
          "name": "userAddress",
          "type": "address"
        },
        {
          "indexed": false,
          "internalType": "address payable",
          "name": "relayerAddress",
          "type": "address"
        },
        {
          "indexed": false,
          "internalType": "bytes",
          "name": "functionSignature",
          "type": "bytes"
        }
      ],
      "name": "MetaTransactionExecuted",
      "type": "event"
    },
    {
      "anonymous": false,
      "inputs": [
        {
          "indexed": true,
          "internalType": "address",
          "name": "previousOwner",
          "type": "address"
        },
        {
          "indexed": true,
          "internalType": "address",
          "name": "newOwner",
          "type": "address"
        }
      ],
      "name": "OwnershipTransferred",
      "type": "event"
    },
    {
      "anonymous": false,
      "inputs": [
        {
          "indexed": true,
          "internalType": "address",
          "name": "from",
          "type": "address"
        },
        {
          "indexed": true,
          "internalType": "address",
          "name": "to",
          "type": "address"
        },
        {
          "indexed": true,
          "internalType": "uint256",
          "name": "tokenId",
          "type": "uint256"
        }
      ],
      "name": "Transfer",
      "type": "event"
    },
    {
      "inputs": [],
      "name": "ERC712_VERSION",
      "outputs": [
        {
          "internalType": "string",
          "name": "",
          "type": "string"
        }
      ],
      "stateMutability": "view",
      "type": "function"
    },
    {
      "inputs": [],
      "name": "_tokenId",
      "outputs": [
        {
          "internalType": "uint256",
          "name": "_value",
          "type": "uint256"
        }
      ],
      "stateMutability": "view",
      "type": "function"
    },
    {
      "inputs": [
        {
          "internalType": "address",
          "name": "to",
          "type": "address"
        },
        {
          "internalType": "uint256",
          "name": "tokenId",
          "type": "uint256"
        }
      ],
      "name": "approve",
      "outputs": [],
      "stateMutability": "nonpayable",
      "type": "function"
    },
    {
      "inputs": [
        {
          "internalType": "address",
          "name": "owner",
          "type": "address"
        }
      ],
      "name": "balanceOf",
      "outputs": [
        {
          "internalType": "uint256",
          "name": "",
          "type": "uint256"
        }
      ],
      "stateMutability": "view",
      "type": "function"
    },
    {
      "inputs": [
        {
          "internalType": "address",
          "name": "userAddress",
          "type": "address"
        },
        {
          "internalType": "bytes",
          "name": "functionSignature",
          "type": "bytes"
        },
        {
          "internalType": "bytes32",
          "name": "sigR",
          "type": "bytes32"
        },
        {
          "internalType": "bytes32",
          "name": "sigS",
          "type": "bytes32"
        },
        {
          "internalType": "uint8",
          "name": "sigV",
          "type": "uint8"
        }
      ],
      "name": "executeMetaTransaction",
      "outputs": [
        {
          "internalType": "bytes",
          "name": "",
          "type": "bytes"
        }
      ],
      "stateMutability": "payable",
      "type": "function"
    },
    {
      "inputs": [
        {
          "internalType": "uint256",
          "name": "tokenId",
          "type": "uint256"
        }
      ],
      "name": "getApproved",
      "outputs": [
        {
          "internalType": "address",
          "name": "",
          "type": "address"
        }
      ],
      "stateMutability": "view",
      "type": "function"
    },
    {
      "inputs": [],
      "name": "getChainId",
      "outputs": [
        {
          "internalType": "uint256",
          "name": "",
          "type": "uint256"
        }
      ],
      "stateMutability": "view",
      "type": "function"
    },
    {
      "inputs": [],
      "name": "getDomainSeperator",
      "outputs": [
        {
          "internalType": "bytes32",
          "name": "",
          "type": "bytes32"
        }
      ],
      "stateMutability": "view",
      "type": "function"
    },
    {
      "inputs": [
        {
          "internalType": "address",
          "name": "user",
          "type": "address"
        }
      ],
      "name": "getNonce",
      "outputs": [
        {
          "internalType": "uint256",
          "name": "nonce",
          "type": "uint256"
        }
      ],
      "stateMutability": "view",
      "type": "function"
    },
    {
      "inputs": [
        {
          "internalType": "address",
          "name": "owner",
          "type": "address"
        },
        {
          "internalType": "address",
          "name": "operator",
          "type": "address"
        }
      ],
      "name": "isApprovedForAll",
      "outputs": [
        {
          "internalType": "bool",
          "name": "",
          "type": "bool"
        }
      ],
      "stateMutability": "view",
      "type": "function"
    },
    {
      "inputs": [
        {
          "internalType": "uint8",
          "name": "tries",
          "type": "uint8"
        },
        {
          "internalType": "bytes5",
          "name": "word",
          "type": "bytes5"
        }
      ],
      "name": "mintWord",
      "outputs": [
        {
          "internalType": "uint256",
          "name": "",
          "type": "uint256"
        }
      ],
      "stateMutability": "payable",
      "type": "function"
    },
    {
      "inputs": [
        {
          "internalType": "address",
          "name": "",
          "type": "address"
        }
      ],
      "name": "minterMap",
      "outputs": [
        {
          "internalType": "bool",
          "name": "",
          "type": "bool"
        }
      ],
      "stateMutability": "view",
      "type": "function"
    },
    {
      "inputs": [],
      "name": "name",
      "outputs": [
        {
          "internalType": "string",
          "name": "",
          "type": "string"
        }
      ],
      "stateMutability": "view",
      "type": "function"
    },
    {
      "inputs": [],
      "name": "ongoingMintPrice",
      "outputs": [
        {
          "internalType": "uint256",
          "name": "",
          "type": "uint256"
        }
      ],
      "stateMutability": "view",
      "type": "function"
    },
    {
      "inputs": [],
      "name": "owner",
      "outputs": [
        {
          "internalType": "address",
          "name": "",
          "type": "address"
        }
      ],
      "stateMutability": "view",
      "type": "function"
    },
    {
      "inputs": [
        {
          "internalType": "uint256",
          "name": "tokenId",
          "type": "uint256"
        }
      ],
      "name": "ownerOf",
      "outputs": [
        {
          "internalType": "address",
          "name": "",
          "type": "address"
        }
      ],
      "stateMutability": "view",
      "type": "function"
    },
    {
      "inputs": [],
      "name": "register",
      "outputs": [],
      "stateMutability": "payable",
      "type": "function"
    },
    {
      "inputs": [],
      "name": "renounceOwnership",
      "outputs": [],
      "stateMutability": "nonpayable",
      "type": "function"
    },
    {
      "inputs": [
        {
          "internalType": "address",
          "name": "from",
          "type": "address"
        },
        {
          "internalType": "address",
          "name": "to",
          "type": "address"
        },
        {
          "internalType": "uint256",
          "name": "tokenId",
          "type": "uint256"
        }
      ],
      "name": "safeTransferFrom",
      "outputs": [],
      "stateMutability": "nonpayable",
      "type": "function"
    },
    {
      "inputs": [
        {
          "internalType": "address",
          "name": "from",
          "type": "address"
        },
        {
          "internalType": "address",
          "name": "to",
          "type": "address"
        },
        {
          "internalType": "uint256",
          "name": "tokenId",
          "type": "uint256"
        },
        {
          "internalType": "bytes",
          "name": "_data",
          "type": "bytes"
        }
      ],
      "name": "safeTransferFrom",
      "outputs": [],
      "stateMutability": "nonpayable",
      "type": "function"
    },
    {
      "inputs": [
        {
          "internalType": "address",
          "name": "operator",
          "type": "address"
        },
        {
          "internalType": "bool",
          "name": "approved",
          "type": "bool"
        }
      ],
      "name": "setApprovalForAll",
      "outputs": [],
      "stateMutability": "nonpayable",
      "type": "function"
    },
    {
      "inputs": [
        {
          "internalType": "bytes4",
          "name": "interfaceId",
          "type": "bytes4"
        }
      ],
      "name": "supportsInterface",
      "outputs": [
        {
          "internalType": "bool",
          "name": "",
          "type": "bool"
        }
      ],
      "stateMutability": "view",
      "type": "function"
    },
    {
      "inputs": [],
      "name": "symbol",
      "outputs": [
        {
          "internalType": "string",
          "name": "",
          "type": "string"
        }
      ],
      "stateMutability": "view",
      "type": "function"
    },
    {
      "inputs": [
        {
          "internalType": "uint256",
          "name": "tokenId",
          "type": "uint256"
        }
      ],
      "name": "tokenURI",
      "outputs": [
        {
          "internalType": "string",
          "name": "",
          "type": "string"
        }
      ],
      "stateMutability": "view",
      "type": "function"
    },
    {
      "inputs": [
        {
          "internalType": "address",
          "name": "from",
          "type": "address"
        },
        {
          "internalType": "address",
          "name": "to",
          "type": "address"
        },
        {
          "internalType": "uint256",
          "name": "tokenId",
          "type": "uint256"
        }
      ],
      "name": "transferFrom",
      "outputs": [],
      "stateMutability": "nonpayable",
      "type": "function"
    },
    {
      "inputs": [
        {
          "internalType": "address",
          "name": "newOwner",
          "type": "address"
        }
      ],
      "name": "transferOwnership",
      "outputs": [],
      "stateMutability": "nonpayable",
      "type": "function"
    },
    {
      "inputs": [
        {
          "internalType": "uint256",
          "name": "amount",
          "type": "uint256"
        }
      ],
      "name": "withdraw",
      "outputs": [],
      "stateMutability": "payable",
      "type": "function"
    },
    {
      "inputs": [],
      "name": "withdrawAll",
      "outputs": [],
      "stateMutability": "payable",
      "type": "function"
    },
    {
      "inputs": [
        {
          "internalType": "bytes5",
          "name": "",
          "type": "bytes5"
        }
      ],
      "name": "wordMap",
      "outputs": [
        {
          "internalType": "bool",
          "name": "",
          "type": "bool"
        }
      ],
      "stateMutability": "view",
      "type": "function"
    }
  ],
  "bytecode": "60806040526007805460ff60a01b191690553480156200001e57600080fd5b5060405162002e0238038062002e02833981016040819052620000419162000563565b8551869086906200005a906000906020850190620003d3565b50805162000070906001906020840190620003d3565b5050506200008d62000087620001eb60201b60201c565b62000207565b8351620000a2906010906020870190620003d3565b50600b839055601180546001600160a01b0319166001600160a01b038416179055620000db600a62000259602090811b6200131b17901c565b620000e68662000262565b600c80546001600160a01b0319166001600160a01b03929092169190911790555050600f60205250506601c6bf526340007f169f97de0d9a84d840042b17d3c6b9638b3d6fd9024c9eb0c7a306a17b49f88f555066016bcc41e900007fa74ba3945261e09fde15ba3db55005b205e61eeb4ad811ac0faa2b315bffeead55660110d9316ec0007f45f76dafbbad695564362934e24d72eedc57f9fc1a65f39bca62176cc82968285565b5e620f480007f367ccd2d0ac16bf7110a5dffe0801fdc9452a95a1adb7e1a12fe97dd3e9a4edd556005600052655af3107a40007f6bda57492eba051cb4a12a1e19df47c9755d78165341d4009b1d09b3f3616204556200065e565b600062000202620002d360201b620013241760201c565b905090565b600780546001600160a01b038381166001600160a01b0319831681179093556040519116919082907f8be0079c531659141344cd1fd0a4f28419497f9722a3daafe3b4186f6b6457e090600090a35050565b80546001019055565b600754600160a01b900460ff1615620002b25760405162461bcd60e51b815260206004820152600e60248201526d185b1c9958591e481a5b9a5d195960921b604482015260640160405180910390fd5b620002bd8162000331565b506007805460ff60a01b1916600160a01b179055565b60003033036200032b57600080368080601f0160208091040260200160405190810160405280939291908181526020018383808284376000920191909152505050503601516001600160a01b031691506200032e9050565b50335b90565b6040518060800160405280604f815260200162002db3604f9139805160209182012082519282019290922060408051808201825260018152603160f81b90840152805180840194909452838101919091527fc89efdaa54c0f20c7adf612882df0950f5a951637e0307cdcb4c672f298b8bc660608401523060808401524660a0808501919091528151808503909101815260c090930190528151910120600855565b828054620003e19062000622565b90600052602060002090601f01602090048101928262000405576000855562000450565b82601f106200042057805160ff191683800117855562000450565b8280016001018555821562000450579182015b828111156200045057825182559160200191906001019062000433565b506200045e92915062000462565b5090565b5b808211156200045e576000815560010162000463565b634e487b7160e01b600052604160045260246000fd5b600082601f830112620004a157600080fd5b81516001600160401b0380821115620004be57620004be62000479565b604051601f8301601f19908116603f01168101908282118183101715620004e957620004e962000479565b816040528381526020925086838588010111156200050657600080fd5b600091505b838210156200052a57858201830151818301840152908201906200050b565b838211156200053c5760008385830101525b9695505050505050565b80516001600160a01b03811681146200055e57600080fd5b919050565b60008060008060008060c087890312156200057d57600080fd5b86516001600160401b03808211156200059557600080fd5b620005a38a838b016200048f565b97506020890151915080821115620005ba57600080fd5b620005c88a838b016200048f565b96506040890151915080821115620005df57600080fd5b50620005ee89828a016200048f565b94505060608701519250620006066080880162000546565b91506200061660a0880162000546565b90509295509295509295565b600181811c908216806200063757607f821691505b6020821081036200065857634e487b7160e01b600052602260045260246000fd5b50919050565b612745806200066e6000396000f3fe6080604052600436106101c15760003560e01c806342842e0e116100f757806395d89b4111610095578063c87b56dd11610064578063c87b56dd146104db578063e4dbd0c2146104fb578063e985e9c51461050e578063f2fde38b1461052e57600080fd5b806395d89b4114610456578063a22cb4651461046b578063a584e82f1461048b578063b88d4fde146104bb57600080fd5b8063715018a6116100d1578063715018a6146103eb57806384efcf2114610400578063853828b6146104305780638da5cb5b1461043857600080fd5b806342842e0e1461038b5780636352211e146103ab57806370a08231146103cb57600080fd5b80631aa3a00811610164578063248225141161013e57806324822514146103185780632d0335ab1461032f5780632e1a7d4d146103655780633408e4701461037857600080fd5b80631aa3a008146102db57806320379ee5146102e357806323b872dd146102f857600080fd5b8063081812fc116101a0578063081812fc14610241578063095ea7b3146102795780630c53c51c1461029b5780630f7e5970146102ae57600080fd5b8062eee7c8146101c657806301ffc9a7146101ef57806306fdde031461021f575b600080fd5b3480156101d257600080fd5b506101dc600b5481565b6040519081526020015b60405180910390f35b3480156101fb57600080fd5b5061020f61020a366004611f43565b61054e565b60405190151581526020016101e6565b34801561022b57600080fd5b506102346105a0565b6040516101e69190611fb8565b34801561024d57600080fd5b5061026161025c366004611fcb565b610632565b6040516001600160a01b0390911681526020016101e6565b34801561028557600080fd5b50610299610294366004611ff9565b6106bf565b005b6102346102a93660046120de565b6107e6565b3480156102ba57600080fd5b50610234604051806040016040528060018152602001603160f81b81525081565b6102996109d0565b3480156102ef57600080fd5b506008546101dc565b34801561030457600080fd5b50610299610313366004612152565b610ae5565b34801561032457600080fd5b50600a546101dc9081565b34801561033b57600080fd5b506101dc61034a366004612193565b6001600160a01b031660009081526009602052604090205490565b610299610373366004611fcb565b610b1d565b34801561038457600080fd5b50466101dc565b34801561039757600080fd5b506102996103a6366004612152565b610b97565b3480156103b757600080fd5b506102616103c6366004611fcb565b610bb2565b3480156103d757600080fd5b506101dc6103e6366004612193565b610c29565b3480156103f757600080fd5b50610299610cb0565b34801561040c57600080fd5b5061020f61041b366004612193565b600d6020526000908152604090205460ff1681565b610299610d03565b34801561044457600080fd5b506007546001600160a01b0316610261565b34801561046257600080fd5b50610234610d7b565b34801561047757600080fd5b506102996104863660046121be565b610d8a565b34801561049757600080fd5b5061020f6104a636600461220f565b600e6020526000908152604090205460ff1681565b3480156104c757600080fd5b506102996104d636600461222a565b610d9c565b3480156104e757600080fd5b506102346104f6366004611fcb565b610ddb565b6101dc610509366004612296565b610f51565b34801561051a57600080fd5b5061020f6105293660046122c9565b6111a8565b34801561053a57600080fd5b50610299610549366004612193565b611264565b60006001600160e01b031982166380ac58cd60e01b148061057f57506001600160e01b03198216635b5e139f60e01b145b8061059a57506301ffc9a760e01b6001600160e01b03198316145b92915050565b6060600080546105af906122f7565b80601f01602080910402602001604051908101604052809291908181526020018280546105db906122f7565b80156106285780601f106105fd57610100808354040283529160200191610628565b820191906000526020600020905b81548152906001019060200180831161060b57829003601f168201915b5050505050905090565b600061063d82611380565b6106a35760405162461bcd60e51b815260206004820152602c60248201527f4552433732313a20617070726f76656420717565727920666f72206e6f6e657860448201526b34b9ba32b73a103a37b5b2b760a11b60648201526084015b60405180910390fd5b506000908152600460205260409020546001600160a01b031690565b60006106ca82610bb2565b9050806001600160a01b0316836001600160a01b0316036107375760405162461bcd60e51b815260206004820152602160248201527f4552433732313a20617070726f76616c20746f2063757272656e74206f776e656044820152603960f91b606482015260840161069a565b806001600160a01b031661074961139d565b6001600160a01b0316148061076557506107658161052961139d565b6107d75760405162461bcd60e51b815260206004820152603860248201527f4552433732313a20617070726f76652063616c6c6572206973206e6f74206f7760448201527f6e6572206e6f7220617070726f76656420666f7220616c6c0000000000000000606482015260840161069a565b6107e183836113ac565b505050565b60408051606081810183526001600160a01b03881660008181526009602090815290859020548452830152918101869052610824878287878761141a565b61087a5760405162461bcd60e51b815260206004820152602160248201527f5369676e657220616e64207369676e617475726520646f206e6f74206d6174636044820152600d60fb1b606482015260840161069a565b6001600160a01b03871660009081526009602052604090205461089e90600161150a565b6001600160a01b0388166000908152600960205260409081902091909155517f5845892132946850460bff5a0083f71031bc5bf9aadcd40f1de79423eac9b10b906108ee90899033908a90612331565b60405180910390a1600080306001600160a01b0316888a604051602001610916929190612366565b60408051601f19818403018152908290526109309161239d565b6000604051808303816000865af19150503d806000811461096d576040519150601f19603f3d011682016040523d82523d6000602084013e610972565b606091505b5091509150816109c45760405162461bcd60e51b815260206004820152601c60248201527f46756e6374696f6e2063616c6c206e6f74207375636365737366756c00000000604482015260640161069a565b98975050505050505050565b601154600b546040516323b872dd60e01b815232600482015230602482015260448101919091526001600160a01b03909116906323b872dd906064016020604051808303816000875af1158015610a2b573d6000803e3d6000fd5b505050506040513d601f19601f82011682018060405250810190610a4f91906123b9565b610ac15760405162461bcd60e51b815260206004820152603960248201527f4661696c65643a20506c65617365207061792074686520617070726f7072696160448201527f7465204f4e474f494e545f4d494e545f50524943452066656500000000000000606482015260840161069a565b336000908152600d60205260409020805460ff19166001179055610ae361151d565b565b610af6610af061139d565b8261154b565b610b125760405162461bcd60e51b815260040161069a906123d6565b6107e183838361160d565b610b2561139d565b6001600160a01b0316610b406007546001600160a01b031690565b6001600160a01b031614610b665760405162461bcd60e51b815260040161069a90612427565b604051339082156108fc029083906000818181858888f19350505050158015610b93573d6000803e3d6000fd5b5050565b6107e183838360405180602001604052806000815250610d9c565b6000818152600260205260408120546001600160a01b03168061059a5760405162461bcd60e51b815260206004820152602960248201527f4552433732313a206f776e657220717565727920666f72206e6f6e657869737460448201526832b73a103a37b5b2b760b91b606482015260840161069a565b60006001600160a01b038216610c945760405162461bcd60e51b815260206004820152602a60248201527f4552433732313a2062616c616e636520717565727920666f7220746865207a65604482015269726f206164647265737360b01b606482015260840161069a565b506001600160a01b031660009081526003602052604090205490565b610cb861139d565b6001600160a01b0316610cd36007546001600160a01b031690565b6001600160a01b031614610cf95760405162461bcd60e51b815260040161069a90612427565b610ae360006117a9565b610d0b61139d565b6001600160a01b0316610d266007546001600160a01b031690565b6001600160a01b031614610d4c5760405162461bcd60e51b815260040161069a90612427565b60405133904780156108fc02916000818181858888f19350505050158015610d78573d6000803e3d6000fd5b50565b6060600180546105af906122f7565b610b93610d9561139d565b83836117fb565b610dad610da761139d565b8361154b565b610dc95760405162461bcd60e51b815260040161069a906123d6565b610dd5848484846118c9565b50505050565b6060610de682611380565b610e4c5760405162461bcd60e51b815260206004820152603160248201527f45524337323155524953746f726167653a2055524920717565727920666f72206044820152703737b732bc34b9ba32b73a103a37b5b2b760791b606482015260840161069a565b60008281526006602052604081208054610e65906122f7565b80601f0160208091040260200160405190810160405280929190818152602001828054610e91906122f7565b8015610ede5780601f10610eb357610100808354040283529160200191610ede565b820191906000526020600020905b815481529060010190602001808311610ec157829003601f168201915b505050505090506000610efc60408051602081019091526000815290565b90508051600003610f0e575092915050565b815115610f40578082604051602001610f2892919061245c565b60405160208183030381529060405292505050919050565b610f49846118fc565b949350505050565b336000908152600d602052604081205460ff1615156001146110015760405162461bcd60e51b815260206004820152605c60248201527f506c61796572206e6f7420616c6c6f77656420746f206d696e742e20506c656160448201527f7365207061792074686520617070726f707269617465204f4e474f494e545f4d60648201527f494e545f505249434520666565206265666f7265206d696e74696e6700000000608482015260a40161069a565b6001600160d81b031982166000908152600e602052604090205460ff16156110865760405162461bcd60e51b815260206004820152603260248201527f54686520776f72642068617320616c7265616479206265656e206d696e74656460448201527110313c9030b737ba3432b910383630bcb2b960711b606482015260840161069a565b3332146110bf5760405162461bcd60e51b81526020600482015260076024820152664e6f20426f747360c81b604482015260640161069a565b336000908152600d60209081526040808320805460ff199081169091556001600160d81b031986168452600e909252822080549091166001179055600a549050606061110f600a80546001019055565b60108460405160200161112392919061248b565b604051602081830303815290604052905061113e33836119d3565b61114882826119ed565b60ff85166000908152600f6020526040902054156111a05760ff85166000908152600f6020526040808220549051339282156108fc02929190818181858888f1935050505015801561119e573d6000803e3d6000fd5b505b509392505050565b600c5460405163c455279160e01b81526001600160a01b03848116600483015260009281169190841690829063c455279190602401602060405180830381865afa1580156111fa573d6000803e3d6000fd5b505050506040513d601f19601f8201168201806040525081019061121e9190612551565b6001600160a01b03160361123657600191505061059a565b6001600160a01b0380851660009081526005602090815260408083209387168352929052205460ff16610f49565b61126c61139d565b6001600160a01b03166112876007546001600160a01b031690565b6001600160a01b0316146112ad5760405162461bcd60e51b815260040161069a90612427565b6001600160a01b0381166113125760405162461bcd60e51b815260206004820152602660248201527f4f776e61626c653a206e6577206f776e657220697320746865207a65726f206160448201526564647265737360d01b606482015260840161069a565b610d78816117a9565b80546001019055565b600030330361137a57600080368080601f0160208091040260200160405190810160405280939291908181526020018383808284376000920191909152505050503601516001600160a01b0316915061137d9050565b50335b90565b6000908152600260205260409020546001600160a01b0316151590565b60006113a7611324565b905090565b600081815260046020526040902080546001600160a01b0319166001600160a01b03841690811790915581906113e182610bb2565b6001600160a01b03167f8c5be1e5ebec7d5bd14f71427d1e84f3dd0314c0f7b2291e5b200ac8c7c3b92560405160405180910390a45050565b60006001600160a01b0386166114805760405162461bcd60e51b815260206004820152602560248201527f4e61746976654d6574615472616e73616374696f6e3a20494e56414c49445f5360448201526424a3a722a960d91b606482015260840161069a565b600161149361148e87611a78565b611af5565b6040805160008152602081018083529290925260ff851690820152606081018690526080810185905260a0016020604051602081039080840390855afa1580156114e1573d6000803e3d6000fd5b505050602060405103516001600160a01b0316866001600160a01b031614905095945050505050565b60006115168284612584565b9392505050565b600a546103ff16600003610ae35766038d7ea4c68000600b60008282546115449190612584565b9091555050565b600061155682611380565b6115b75760405162461bcd60e51b815260206004820152602c60248201527f4552433732313a206f70657261746f7220717565727920666f72206e6f6e657860448201526b34b9ba32b73a103a37b5b2b760a11b606482015260840161069a565b60006115c283610bb2565b9050806001600160a01b0316846001600160a01b031614806115fd5750836001600160a01b03166115f284610632565b6001600160a01b0316145b80610f495750610f4981856111a8565b826001600160a01b031661162082610bb2565b6001600160a01b0316146116845760405162461bcd60e51b815260206004820152602560248201527f4552433732313a207472616e736665722066726f6d20696e636f72726563742060448201526437bbb732b960d91b606482015260840161069a565b6001600160a01b0382166116e65760405162461bcd60e51b8152602060048201526024808201527f4552433732313a207472616e7366657220746f20746865207a65726f206164646044820152637265737360e01b606482015260840161069a565b6116f16000826113ac565b6001600160a01b038316600090815260036020526040812080546001929061171a90849061259c565b90915550506001600160a01b0382166000908152600360205260408120805460019290611748908490612584565b909155505060008181526002602052604080822080546001600160a01b0319166001600160a01b0386811691821790925591518493918716917fddf252ad1be2c89b69c2b068fc378daa952ba7f163c4a11628f55a4df523b3ef91a4505050565b600780546001600160a01b038381166001600160a01b0319831681179093556040519116919082907f8be0079c531659141344cd1fd0a4f28419497f9722a3daafe3b4186f6b6457e090600090a35050565b816001600160a01b0316836001600160a01b03160361185c5760405162461bcd60e51b815260206004820152601960248201527f4552433732313a20617070726f766520746f2063616c6c657200000000000000604482015260640161069a565b6001600160a01b03838116600081815260056020908152604080832094871680845294825291829020805460ff191686151590811790915591519182527f17307eab39ab6107e8899845ad3d59bd9653f200f220920489ca2b5937696c31910160405180910390a3505050565b6118d484848461160d565b6118e084848484611b25565b610dd55760405162461bcd60e51b815260040161069a906125b3565b606061190782611380565b61196b5760405162461bcd60e51b815260206004820152602f60248201527f4552433732314d657461646174613a2055524920717565727920666f72206e6f60448201526e3732bc34b9ba32b73a103a37b5b2b760891b606482015260840161069a565b600061198260408051602081019091526000815290565b905060008151116119a25760405180602001604052806000815250611516565b806119ac84611c2d565b6040516020016119bd92919061245c565b6040516020818303038152906040529392505050565b610b93828260405180602001604052806000815250611d2e565b6119f682611380565b611a595760405162461bcd60e51b815260206004820152602e60248201527f45524337323155524953746f726167653a2055524920736574206f66206e6f6e60448201526d32bc34b9ba32b73a103a37b5b2b760911b606482015260840161069a565b600082815260066020908152604090912082516107e192840190611e94565b60006040518060800160405280604381526020016126cd6043913980516020918201208351848301516040808701518051908601209051611ad8950193845260208401929092526001600160a01b03166040830152606082015260800190565b604051602081830303815290604052805190602001209050919050565b6000611b0060085490565b60405161190160f01b6020820152602281019190915260428101839052606201611ad8565b60006001600160a01b0384163b15611c2257836001600160a01b031663150b7a02611b4e61139d565b8786866040518563ffffffff1660e01b8152600401611b709493929190612605565b6020604051808303816000875af1925050508015611bab575060408051601f3d908101601f19168201909252611ba891810190612642565b60015b611c08573d808015611bd9576040519150601f19603f3d011682016040523d82523d6000602084013e611bde565b606091505b508051600003611c005760405162461bcd60e51b815260040161069a906125b3565b805181602001fd5b6001600160e01b031916630a85bd0160e11b149050610f49565b506001949350505050565b606081600003611c545750506040805180820190915260018152600360fc1b602082015290565b8160005b8115611c7e5780611c688161265f565b9150611c779050600a8361268e565b9150611c58565b60008167ffffffffffffffff811115611c9957611c99612025565b6040519080825280601f01601f191660200182016040528015611cc3576020820181803683370190505b5090505b8415610f4957611cd860018361259c565b9150611ce5600a866126a2565b611cf0906030612584565b60f81b818381518110611d0557611d056126b6565b60200101906001600160f81b031916908160001a905350611d27600a8661268e565b9450611cc7565b611d388383611d61565b611d456000848484611b25565b6107e15760405162461bcd60e51b815260040161069a906125b3565b6001600160a01b038216611db75760405162461bcd60e51b815260206004820181905260248201527f4552433732313a206d696e7420746f20746865207a65726f2061646472657373604482015260640161069a565b611dc081611380565b15611e0d5760405162461bcd60e51b815260206004820152601c60248201527f4552433732313a20746f6b656e20616c7265616479206d696e74656400000000604482015260640161069a565b6001600160a01b0382166000908152600360205260408120805460019290611e36908490612584565b909155505060008181526002602052604080822080546001600160a01b0319166001600160a01b03861690811790915590518392907fddf252ad1be2c89b69c2b068fc378daa952ba7f163c4a11628f55a4df523b3ef908290a45050565b828054611ea0906122f7565b90600052602060002090601f016020900481019282611ec25760008555611f08565b82601f10611edb57805160ff1916838001178555611f08565b82800160010185558215611f08579182015b82811115611f08578251825591602001919060010190611eed565b50611f14929150611f18565b5090565b5b80821115611f145760008155600101611f19565b6001600160e01b031981168114610d7857600080fd5b600060208284031215611f5557600080fd5b813561151681611f2d565b60005b83811015611f7b578181015183820152602001611f63565b83811115610dd55750506000910152565b60008151808452611fa4816020860160208601611f60565b601f01601f19169290920160200192915050565b6020815260006115166020830184611f8c565b600060208284031215611fdd57600080fd5b5035919050565b6001600160a01b0381168114610d7857600080fd5b6000806040838503121561200c57600080fd5b823561201781611fe4565b946020939093013593505050565b634e487b7160e01b600052604160045260246000fd5b600082601f83011261204c57600080fd5b813567ffffffffffffffff8082111561206757612067612025565b604051601f8301601f19908116603f0116810190828211818310171561208f5761208f612025565b816040528381528660208588010111156120a857600080fd5b836020870160208301376000602085830101528094505050505092915050565b803560ff811681146120d957600080fd5b919050565b600080600080600060a086880312156120f657600080fd5b853561210181611fe4565b9450602086013567ffffffffffffffff81111561211d57600080fd5b6121298882890161203b565b9450506040860135925060608601359150612146608087016120c8565b90509295509295909350565b60008060006060848603121561216757600080fd5b833561217281611fe4565b9250602084013561218281611fe4565b929592945050506040919091013590565b6000602082840312156121a557600080fd5b813561151681611fe4565b8015158114610d7857600080fd5b600080604083850312156121d157600080fd5b82356121dc81611fe4565b915060208301356121ec816121b0565b809150509250929050565b80356001600160d81b0319811681146120d957600080fd5b60006020828403121561222157600080fd5b611516826121f7565b6000806000806080858703121561224057600080fd5b843561224b81611fe4565b9350602085013561225b81611fe4565b925060408501359150606085013567ffffffffffffffff81111561227e57600080fd5b61228a8782880161203b565b91505092959194509250565b600080604083850312156122a957600080fd5b6122b2836120c8565b91506122c0602084016121f7565b90509250929050565b600080604083850312156122dc57600080fd5b82356122e781611fe4565b915060208301356121ec81611fe4565b600181811c9082168061230b57607f821691505b60208210810361232b57634e487b7160e01b600052602260045260246000fd5b50919050565b6001600160a01b0384811682528316602082015260606040820181905260009061235d90830184611f8c565b95945050505050565b60008351612378818460208801611f60565b60609390931b6bffffffffffffffffffffffff19169190920190815260140192915050565b600082516123af818460208701611f60565b9190910192915050565b6000602082840312156123cb57600080fd5b8151611516816121b0565b60208082526031908201527f4552433732313a207472616e736665722063616c6c6572206973206e6f74206f6040820152701ddb995c881b9bdc88185c1c1c9bdd9959607a1b606082015260800190565b6020808252818101527f4f776e61626c653a2063616c6c6572206973206e6f7420746865206f776e6572604082015260600190565b6000835161246e818460208801611f60565b835190830190612482818360208801611f60565b01949350505050565b600080845481600182811c9150808316806124a757607f831692505b602080841082036124c657634e487b7160e01b86526022600452602486fd5b8180156124da57600181146124eb57612518565b60ff19861689528489019650612518565b60008b81526020902060005b868110156125105781548b8201529085019083016124f7565b505084890196505b50505050505061253181856001600160d81b0319169052565b6b16b1b7b73334b3973539b7b760a11b6005820152601101949350505050565b60006020828403121561256357600080fd5b815161151681611fe4565b634e487b7160e01b600052601160045260246000fd5b600082198211156125975761259761256e565b500190565b6000828210156125ae576125ae61256e565b500390565b60208082526032908201527f4552433732313a207472616e7366657220746f206e6f6e20455243373231526560408201527131b2b4bb32b91034b6b83632b6b2b73a32b960711b606082015260800190565b6001600160a01b038581168252841660208201526040810183905260806060820181905260009061263890830184611f8c565b9695505050505050565b60006020828403121561265457600080fd5b815161151681611f2d565b6000600182016126715761267161256e565b5060010190565b634e487b7160e01b600052601260045260246000fd5b60008261269d5761269d612678565b500490565b6000826126b1576126b1612678565b500690565b634e487b7160e01b600052603260045260246000fdfe4d6574615472616e73616374696f6e2875696e74323536206e6f6e63652c616464726573732066726f6d2c62797465732066756e6374696f6e5369676e617475726529a2646970667358221220b438bca09690398336c1ec90bc68b4cc969aa8004b1155b032c66840a3e23c7e64736f6c634300080d0033454950373132446f6d61696e28737472696e67206e616d652c737472696e672076657273696f6e2c6164647265737320766572696679696e67436f6e74726163742c627974657333322073616c7429",
  "bytecodeSha1": "da39a3ee5e6b4b0d3255bfef95601890afd80709",
  "compiler": {
    "evm_version": "istanbul",
    "optimizer": {
      "enabled": true,
      "runs": 200
    },
    "version": "0.8.13+commit.abaa5c0e"
  },
  "contractName": "W3rdl3",
  "language": "Solidity",
  "natspec": {
    "kind": "dev",
    "methods": {
      "approve(address,uint256)": {
        "details": "See {IERC721-approve}."
      },
      "balanceOf(address)": {
        "details": "See {IERC721-balanceOf}."
      },
      "getApproved(uint256)": {
        "details": "See {IERC721-getApproved}."
      },
      "isApprovedForAll(address,address)": {
        "details": "See {IERC721-isApprovedForAll}."
      },
      "name()": {
        "details": "See {IERC721Metadata-name}."
      },
      "owner()": {
        "details": "Returns the address of the current owner."
      },
      "ownerOf(uint256)": {
        "details": "See {IERC721-ownerOf}."
      },
      "renounceOwnership()": {
        "details": "Leaves the contract without owner. It will not be possible to call `onlyOwner` functions anymore. Can only be called by the current owner. NOTE: Renouncing ownership will leave the contract without an owner, thereby removing any functionality that is only available to the owner."
      },
      "safeTransferFrom(address,address,uint256)": {
        "details": "See {IERC721-safeTransferFrom}."
      },
      "safeTransferFrom(address,address,uint256,bytes)": {
        "details": "See {IERC721-safeTransferFrom}."
      },
      "setApprovalForAll(address,bool)": {
        "details": "See {IERC721-setApprovalForAll}."
      },
      "supportsInterface(bytes4)": {
        "details": "See {IERC165-supportsInterface}."
      },
      "symbol()": {
        "details": "See {IERC721Metadata-symbol}."
      },
      "tokenURI(uint256)": {
        "details": "See {IERC721Metadata-tokenURI}."
      },
      "transferFrom(address,address,uint256)": {
        "details": "See {IERC721-transferFrom}."
      },
      "transferOwnership(address)": {
        "details": "Transfers ownership of the contract to a new account (`newOwner`). Can only be called by the current owner."
      }
    },
    "version": 1
  },
  "opcodes": "PUSH1 0x80 PUSH1 0x40 MSTORE PUSH1 0x4 CALLDATASIZE LT PUSH2 0x1C1 JUMPI PUSH1 0x0 CALLDATALOAD PUSH1 0xE0 SHR DUP1 PUSH4 0x42842E0E GT PUSH2 0xF7 JUMPI DUP1 PUSH4 0x95D89B41 GT PUSH2 0x95 JUMPI DUP1 PUSH4 0xC87B56DD GT PUSH2 0x64 JUMPI DUP1 PUSH4 0xC87B56DD EQ PUSH2 0x4DB JUMPI DUP1 PUSH4 0xE4DBD0C2 EQ PUSH2 0x4FB JUMPI DUP1 PUSH4 0xE985E9C5 EQ PUSH2 0x50E JUMPI DUP1 PUSH4 0xF2FDE38B EQ PUSH2 0x52E JUMPI PUSH1 0x0 DUP1 REVERT JUMPDEST DUP1 PUSH4 0x95D89B41 EQ PUSH2 0x456 JUMPI DUP1 PUSH4 0xA22CB465 EQ PUSH2 0x46B JUMPI DUP1 PUSH4 0xA584E82F EQ PUSH2 0x48B JUMPI DUP1 PUSH4 0xB88D4FDE EQ PUSH2 0x4BB JUMPI PUSH1 0x0 DUP1 REVERT JUMPDEST DUP1 PUSH4 0x715018A6 GT PUSH2 0xD1 JUMPI DUP1 PUSH4 0x715018A6 EQ PUSH2 0x3EB JUMPI DUP1 PUSH4 0x84EFCF21 EQ PUSH2 0x400 JUMPI DUP1 PUSH4 0x853828B6 EQ PUSH2 0x430 JUMPI DUP1 PUSH4 0x8DA5CB5B EQ PUSH2 0x438 JUMPI PUSH1 0x0 DUP1 REVERT JUMPDEST DUP1 PUSH4 0x42842E0E EQ PUSH2 0x38B JUMPI DUP1 PUSH4 0x6352211E EQ PUSH2 0x3AB JUMPI DUP1 PUSH4 0x70A08231 EQ PUSH2 0x3CB JUMPI PUSH1 0x0 DUP1 REVERT JUMPDEST DUP1 PUSH4 0x1AA3A008 GT PUSH2 0x164 JUMPI DUP1 PUSH4 0x24822514 GT PUSH2 0x13E JUMPI DUP1 PUSH4 0x24822514 EQ PUSH2 0x318 JUMPI DUP1 PUSH4 0x2D0335AB EQ PUSH2 0x32F JUMPI DUP1 PUSH4 0x2E1A7D4D EQ PUSH2 0x365 JUMPI DUP1 PUSH4 0x3408E470 EQ PUSH2 0x378 JUMPI PUSH1 0x0 DUP1 REVERT JUMPDEST DUP1 PUSH4 0x1AA3A008 EQ PUSH2 0x2DB JUMPI DUP1 PUSH4 0x20379EE5 EQ PUSH2 0x2E3 JUMPI DUP1 PUSH4 0x23B872DD EQ PUSH2 0x2F8 JUMPI PUSH1 0x0 DUP1 REVERT JUMPDEST DUP1 PUSH4 0x81812FC GT PUSH2 0x1A0 JUMPI DUP1 PUSH4 0x81812FC EQ PUSH2 0x241 JUMPI DUP1 PUSH4 0x95EA7B3 EQ PUSH2 0x279 JUMPI DUP1 PUSH4 0xC53C51C EQ PUSH2 0x29B JUMPI DUP1 PUSH4 0xF7E5970 EQ PUSH2 0x2AE JUMPI PUSH1 0x0 DUP1 REVERT JUMPDEST DUP1 PUSH3 0xEEE7C8 EQ PUSH2 0x1C6 JUMPI DUP1 PUSH4 0x1FFC9A7 EQ PUSH2 0x1EF JUMPI DUP1 PUSH4 0x6FDDE03 EQ PUSH2 0x21F JUMPI JUMPDEST PUSH1 0x0 DUP1 REVERT JUMPDEST CALLVALUE DUP1 ISZERO PUSH2 0x1D2 JUMPI PUSH1 0x0 DUP1 REVERT JUMPDEST POP PUSH2 0x1DC PUSH1 0xB SLOAD DUP2 JUMP JUMPDEST PUSH1 0x40 MLOAD SWAP1 DUP2 MSTORE PUSH1 0x20 ADD JUMPDEST PUSH1 0x40 MLOAD DUP1 SWAP2 SUB SWAP1 RETURN JUMPDEST CALLVALUE DUP1 ISZERO PUSH2 0x1FB JUMPI PUSH1 0x0 DUP1 REVERT JUMPDEST POP PUSH2 0x20F PUSH2 0x20A CALLDATASIZE PUSH1 0x4 PUSH2 0x1F43 JUMP JUMPDEST PUSH2 0x54E JUMP JUMPDEST PUSH1 0x40 MLOAD SWAP1 ISZERO ISZERO DUP2 MSTORE PUSH1 0x20 ADD PUSH2 0x1E6 JUMP JUMPDEST CALLVALUE DUP1 ISZERO PUSH2 0x22B JUMPI PUSH1 0x0 DUP1 REVERT JUMPDEST POP PUSH2 0x234 PUSH2 0x5A0 JUMP JUMPDEST PUSH1 0x40 MLOAD PUSH2 0x1E6 SWAP2 SWAP1 PUSH2 0x1FB8 JUMP JUMPDEST CALLVALUE DUP1 ISZERO PUSH2 0x24D JUMPI PUSH1 0x0 DUP1 REVERT JUMPDEST POP PUSH2 0x261 PUSH2 0x25C CALLDATASIZE PUSH1 0x4 PUSH2 0x1FCB JUMP JUMPDEST PUSH2 0x632 JUMP JUMPDEST PUSH1 0x40 MLOAD PUSH1 0x1 PUSH1 0x1 PUSH1 0xA0 SHL SUB SWAP1 SWAP2 AND DUP2 MSTORE PUSH1 0x20 ADD PUSH2 0x1E6 JUMP JUMPDEST CALLVALUE DUP1 ISZERO PUSH2 0x285 JUMPI PUSH1 0x0 DUP1 REVERT JUMPDEST POP PUSH2 0x299 PUSH2 0x294 CALLDATASIZE PUSH1 0x4 PUSH2 0x1FF9 JUMP JUMPDEST PUSH2 0x6BF JUMP JUMPDEST STOP JUMPDEST PUSH2 0x234 PUSH2 0x2A9 CALLDATASIZE PUSH1 0x4 PUSH2 0x20DE JUMP JUMPDEST PUSH2 0x7E6 JUMP JUMPDEST CALLVALUE DUP1 ISZERO PUSH2 0x2BA JUMPI PUSH1 0x0 DUP1 REVERT JUMPDEST POP PUSH2 0x234 PUSH1 0x40 MLOAD DUP1 PUSH1 0x40 ADD PUSH1 0x40 MSTORE DUP1 PUSH1 0x1 DUP2 MSTORE PUSH1 0x20 ADD PUSH1 0x31 PUSH1 0xF8 SHL DUP2 MSTORE POP DUP2 JUMP JUMPDEST PUSH2 0x299 PUSH2 0x9D0 JUMP JUMPDEST CALLVALUE DUP1 ISZERO PUSH2 0x2EF JUMPI PUSH1 0x0 DUP1 REVERT JUMPDEST POP PUSH1 0x8 SLOAD PUSH2 0x1DC JUMP JUMPDEST CALLVALUE DUP1 ISZERO PUSH2 0x304 JUMPI PUSH1 0x0 DUP1 REVERT JUMPDEST POP PUSH2 0x299 PUSH2 0x313 CALLDATASIZE PUSH1 0x4 PUSH2 0x2152 JUMP JUMPDEST PUSH2 0xAE5 JUMP JUMPDEST CALLVALUE DUP1 ISZERO PUSH2 0x324 JUMPI PUSH1 0x0 DUP1 REVERT JUMPDEST POP PUSH1 0xA SLOAD PUSH2 0x1DC SWAP1 DUP2 JUMP JUMPDEST CALLVALUE DUP1 ISZERO PUSH2 0x33B JUMPI PUSH1 0x0 DUP1 REVERT JUMPDEST POP PUSH2 0x1DC PUSH2 0x34A CALLDATASIZE PUSH1 0x4 PUSH2 0x2193 JUMP JUMPDEST PUSH1 0x1 PUSH1 0x1 PUSH1 0xA0 SHL SUB AND PUSH1 0x0 SWAP1 DUP2 MSTORE PUSH1 0x9 PUSH1 0x20 MSTORE PUSH1 0x40 SWAP1 KECCAK256 SLOAD SWAP1 JUMP JUMPDEST PUSH2 0x299 PUSH2 0x373 CALLDATASIZE PUSH1 0x4 PUSH2 0x1FCB JUMP JUMPDEST PUSH2 0xB1D JUMP JUMPDEST CALLVALUE DUP1 ISZERO PUSH2 0x384 JUMPI PUSH1 0x0 DUP1 REVERT JUMPDEST POP CHAINID PUSH2 0x1DC JUMP JUMPDEST CALLVALUE DUP1 ISZERO PUSH2 0x397 JUMPI PUSH1 0x0 DUP1 REVERT JUMPDEST POP PUSH2 0x299 PUSH2 0x3A6 CALLDATASIZE PUSH1 0x4 PUSH2 0x2152 JUMP JUMPDEST PUSH2 0xB97 JUMP JUMPDEST CALLVALUE DUP1 ISZERO PUSH2 0x3B7 JUMPI PUSH1 0x0 DUP1 REVERT JUMPDEST POP PUSH2 0x261 PUSH2 0x3C6 CALLDATASIZE PUSH1 0x4 PUSH2 0x1FCB JUMP JUMPDEST PUSH2 0xBB2 JUMP JUMPDEST CALLVALUE DUP1 ISZERO PUSH2 0x3D7 JUMPI PUSH1 0x0 DUP1 REVERT JUMPDEST POP PUSH2 0x1DC PUSH2 0x3E6 CALLDATASIZE PUSH1 0x4 PUSH2 0x2193 JUMP JUMPDEST PUSH2 0xC29 JUMP JUMPDEST CALLVALUE DUP1 ISZERO PUSH2 0x3F7 JUMPI PUSH1 0x0 DUP1 REVERT JUMPDEST POP PUSH2 0x299 PUSH2 0xCB0 JUMP JUMPDEST CALLVALUE DUP1 ISZERO PUSH2 0x40C JUMPI PUSH1 0x0 DUP1 REVERT JUMPDEST POP PUSH2 0x20F PUSH2 0x41B CALLDATASIZE PUSH1 0x4 PUSH2 0x2193 JUMP JUMPDEST PUSH1 0xD PUSH1 0x20 MSTORE PUSH1 0x0 SWAP1 DUP2 MSTORE PUSH1 0x40 SWAP1 KECCAK256 SLOAD PUSH1 0xFF AND DUP2 JUMP JUMPDEST PUSH2 0x299 PUSH2 0xD03 JUMP JUMPDEST CALLVALUE DUP1 ISZERO PUSH2 0x444 JUMPI PUSH1 0x0 DUP1 REVERT JUMPDEST POP PUSH1 0x7 SLOAD PUSH1 0x1 PUSH1 0x1 PUSH1 0xA0 SHL SUB AND PUSH2 0x261 JUMP JUMPDEST CALLVALUE DUP1 ISZERO PUSH2 0x462 JUMPI PUSH1 0x0 DUP1 REVERT JUMPDEST POP PUSH2 0x234 PUSH2 0xD7B JUMP JUMPDEST CALLVALUE DUP1 ISZERO PUSH2 0x477 JUMPI PUSH1 0x0 DUP1 REVERT JUMPDEST POP PUSH2 0x299 PUSH2 0x486 CALLDATASIZE PUSH1 0x4 PUSH2 0x21BE JUMP JUMPDEST PUSH2 0xD8A JUMP JUMPDEST CALLVALUE DUP1 ISZERO PUSH2 0x497 JUMPI PUSH1 0x0 DUP1 REVERT JUMPDEST POP PUSH2 0x20F PUSH2 0x4A6 CALLDATASIZE PUSH1 0x4 PUSH2 0x220F JUMP JUMPDEST PUSH1 0xE PUSH1 0x20 MSTORE PUSH1 0x0 SWAP1 DUP2 MSTORE PUSH1 0x40 SWAP1 KECCAK256 SLOAD PUSH1 0xFF AND DUP2 JUMP JUMPDEST CALLVALUE DUP1 ISZERO PUSH2 0x4C7 JUMPI PUSH1 0x0 DUP1 REVERT JUMPDEST POP PUSH2 0x299 PUSH2 0x4D6 CALLDATASIZE PUSH1 0x4 PUSH2 0x222A JUMP JUMPDEST PUSH2 0xD9C JUMP JUMPDEST CALLVALUE DUP1 ISZERO PUSH2 0x4E7 JUMPI PUSH1 0x0 DUP1 REVERT JUMPDEST POP PUSH2 0x234 PUSH2 0x4F6 CALLDATASIZE PUSH1 0x4 PUSH2 0x1FCB JUMP JUMPDEST PUSH2 0xDDB JUMP JUMPDEST PUSH2 0x1DC PUSH2 0x509 CALLDATASIZE PUSH1 0x4 PUSH2 0x2296 JUMP JUMPDEST PUSH2 0xF51 JUMP JUMPDEST CALLVALUE DUP1 ISZERO PUSH2 0x51A JUMPI PUSH1 0x0 DUP1 REVERT JUMPDEST POP PUSH2 0x20F PUSH2 0x529 CALLDATASIZE PUSH1 0x4 PUSH2 0x22C9 JUMP JUMPDEST PUSH2 0x11A8 JUMP JUMPDEST CALLVALUE DUP1 ISZERO PUSH2 0x53A JUMPI PUSH1 0x0 DUP1 REVERT JUMPDEST POP PUSH2 0x299 PUSH2 0x549 CALLDATASIZE PUSH1 0x4 PUSH2 0x2193 JUMP JUMPDEST PUSH2 0x1264 JUMP JUMPDEST PUSH1 0x0 PUSH1 0x1 PUSH1 0x1 PUSH1 0xE0 SHL SUB NOT DUP3 AND PUSH4 0x80AC58CD PUSH1 0xE0 SHL EQ DUP1 PUSH2 0x57F JUMPI POP PUSH1 0x1 PUSH1 0x1 PUSH1 0xE0 SHL SUB NOT DUP3 AND PUSH4 0x5B5E139F PUSH1 0xE0 SHL EQ JUMPDEST DUP1 PUSH2 0x59A JUMPI POP PUSH4 0x1FFC9A7 PUSH1 0xE0 SHL PUSH1 0x1 PUSH1 0x1 PUSH1 0xE0 SHL SUB NOT DUP4 AND EQ JUMPDEST SWAP3 SWAP2 POP POP JUMP JUMPDEST PUSH1 0x60 PUSH1 0x0 DUP1 SLOAD PUSH2 0x5AF SWAP1 PUSH2 0x22F7 JUMP JUMPDEST DUP1 PUSH1 0x1F ADD PUSH1 0x20 DUP1 SWAP2 DIV MUL PUSH1 0x20 ADD PUSH1 0x40 MLOAD SWAP1 DUP2 ADD PUSH1 0x40 MSTORE DUP1 SWAP3 SWAP2 SWAP1 DUP2 DUP2 MSTORE PUSH1 0x20 ADD DUP3 DUP1 SLOAD PUSH2 0x5DB SWAP1 PUSH2 0x22F7 JUMP JUMPDEST DUP1 ISZERO PUSH2 0x628 JUMPI DUP1 PUSH1 0x1F LT PUSH2 0x5FD JUMPI PUSH2 0x100 DUP1 DUP4 SLOAD DIV MUL DUP4 MSTORE SWAP2 PUSH1 0x20 ADD SWAP2 PUSH2 0x628 JUMP JUMPDEST DUP3 ADD SWAP2 SWAP1 PUSH1 0x0 MSTORE PUSH1 0x20 PUSH1 0x0 KECCAK256 SWAP1 JUMPDEST DUP2 SLOAD DUP2 MSTORE SWAP1 PUSH1 0x1 ADD SWAP1 PUSH1 0x20 ADD DUP1 DUP4 GT PUSH2 0x60B JUMPI DUP3 SWAP1 SUB PUSH1 0x1F AND DUP3 ADD SWAP2 JUMPDEST POP POP POP POP POP SWAP1 POP SWAP1 JUMP JUMPDEST PUSH1 0x0 PUSH2 0x63D DUP3 PUSH2 0x1380 JUMP JUMPDEST PUSH2 0x6A3 JUMPI PUSH1 0x40 MLOAD PUSH3 0x461BCD PUSH1 0xE5 SHL DUP2 MSTORE PUSH1 0x20 PUSH1 0x4 DUP3 ADD MSTORE PUSH1 0x2C PUSH1 0x24 DUP3 ADD MSTORE PUSH32 0x4552433732313A20617070726F76656420717565727920666F72206E6F6E6578 PUSH1 0x44 DUP3 ADD MSTORE PUSH12 0x34B9BA32B73A103A37B5B2B7 PUSH1 0xA1 SHL PUSH1 0x64 DUP3 ADD MSTORE PUSH1 0x84 ADD JUMPDEST PUSH1 0x40 MLOAD DUP1 SWAP2 SUB SWAP1 REVERT JUMPDEST POP PUSH1 0x0 SWAP1 DUP2 MSTORE PUSH1 0x4 PUSH1 0x20 MSTORE PUSH1 0x40 SWAP1 KECCAK256 SLOAD PUSH1 0x1 PUSH1 0x1 PUSH1 0xA0 SHL SUB AND SWAP1 JUMP JUMPDEST PUSH1 0x0 PUSH2 0x6CA DUP3 PUSH2 0xBB2 JUMP JUMPDEST SWAP1 POP DUP1 PUSH1 0x1 PUSH1 0x1 PUSH1 0xA0 SHL SUB AND DUP4 PUSH1 0x1 PUSH1 0x1 PUSH1 0xA0 SHL SUB AND SUB PUSH2 0x737 JUMPI PUSH1 0x40 MLOAD PUSH3 0x461BCD PUSH1 0xE5 SHL DUP2 MSTORE PUSH1 0x20 PUSH1 0x4 DUP3 ADD MSTORE PUSH1 0x21 PUSH1 0x24 DUP3 ADD MSTORE PUSH32 0x4552433732313A20617070726F76616C20746F2063757272656E74206F776E65 PUSH1 0x44 DUP3 ADD MSTORE PUSH1 0x39 PUSH1 0xF9 SHL PUSH1 0x64 DUP3 ADD MSTORE PUSH1 0x84 ADD PUSH2 0x69A JUMP JUMPDEST DUP1 PUSH1 0x1 PUSH1 0x1 PUSH1 0xA0 SHL SUB AND PUSH2 0x749 PUSH2 0x139D JUMP JUMPDEST PUSH1 0x1 PUSH1 0x1 PUSH1 0xA0 SHL SUB AND EQ DUP1 PUSH2 0x765 JUMPI POP PUSH2 0x765 DUP2 PUSH2 0x529 PUSH2 0x139D JUMP JUMPDEST PUSH2 0x7D7 JUMPI PUSH1 0x40 MLOAD PUSH3 0x461BCD PUSH1 0xE5 SHL DUP2 MSTORE PUSH1 0x20 PUSH1 0x4 DUP3 ADD MSTORE PUSH1 0x38 PUSH1 0x24 DUP3 ADD MSTORE PUSH32 0x4552433732313A20617070726F76652063616C6C6572206973206E6F74206F77 PUSH1 0x44 DUP3 ADD MSTORE PUSH32 0x6E6572206E6F7220617070726F76656420666F7220616C6C0000000000000000 PUSH1 0x64 DUP3 ADD MSTORE PUSH1 0x84 ADD PUSH2 0x69A JUMP JUMPDEST PUSH2 0x7E1 DUP4 DUP4 PUSH2 0x13AC JUMP JUMPDEST POP POP POP JUMP JUMPDEST PUSH1 0x40 DUP1 MLOAD PUSH1 0x60 DUP2 DUP2 ADD DUP4 MSTORE PUSH1 0x1 PUSH1 0x1 PUSH1 0xA0 SHL SUB DUP9 AND PUSH1 0x0 DUP2 DUP2 MSTORE PUSH1 0x9 PUSH1 0x20 SWAP1 DUP2 MSTORE SWAP1 DUP6 SWAP1 KECCAK256 SLOAD DUP5 MSTORE DUP4 ADD MSTORE SWAP2 DUP2 ADD DUP7 SWAP1 MSTORE PUSH2 0x824 DUP8 DUP3 DUP8 DUP8 DUP8 PUSH2 0x141A JUMP JUMPDEST PUSH2 0x87A JUMPI PUSH1 0x40 MLOAD PUSH3 0x461BCD PUSH1 0xE5 SHL DUP2 MSTORE PUSH1 0x20 PUSH1 0x4 DUP3 ADD MSTORE PUSH1 0x21 PUSH1 0x24 DUP3 ADD MSTORE PUSH32 0x5369676E657220616E64207369676E617475726520646F206E6F74206D617463 PUSH1 0x44 DUP3 ADD MSTORE PUSH1 0xD PUSH1 0xFB SHL PUSH1 0x64 DUP3 ADD MSTORE PUSH1 0x84 ADD PUSH2 0x69A JUMP JUMPDEST PUSH1 0x1 PUSH1 0x1 PUSH1 0xA0 SHL SUB DUP8 AND PUSH1 0x0 SWAP1 DUP2 MSTORE PUSH1 0x9 PUSH1 0x20 MSTORE PUSH1 0x40 SWAP1 KECCAK256 SLOAD PUSH2 0x89E SWAP1 PUSH1 0x1 PUSH2 0x150A JUMP JUMPDEST PUSH1 0x1 PUSH1 0x1 PUSH1 0xA0 SHL SUB DUP9 AND PUSH1 0x0 SWAP1 DUP2 MSTORE PUSH1 0x9 PUSH1 0x20 MSTORE PUSH1 0x40 SWAP1 DUP2 SWAP1 KECCAK256 SWAP2 SWAP1 SWAP2 SSTORE MLOAD PUSH32 0x5845892132946850460BFF5A0083F71031BC5BF9AADCD40F1DE79423EAC9B10B SWAP1 PUSH2 0x8EE SWAP1 DUP10 SWAP1 CALLER SWAP1 DUP11 SWAP1 PUSH2 0x2331 JUMP JUMPDEST PUSH1 0x40 MLOAD DUP1 SWAP2 SUB SWAP1 LOG1 PUSH1 0x0 DUP1 ADDRESS PUSH1 0x1 PUSH1 0x1 PUSH1 0xA0 SHL SUB AND DUP9 DUP11 PUSH1 0x40 MLOAD PUSH1 0x20 ADD PUSH2 0x916 SWAP3 SWAP2 SWAP1 PUSH2 0x2366 JUMP JUMPDEST PUSH1 0x40 DUP1 MLOAD PUSH1 0x1F NOT DUP2 DUP5 SUB ADD DUP2 MSTORE SWAP1 DUP3 SWAP1 MSTORE PUSH2 0x930 SWAP2 PUSH2 0x239D JUMP JUMPDEST PUSH1 0x0 PUSH1 0x40 MLOAD DUP1 DUP4 SUB DUP2 PUSH1 0x0 DUP7 GAS CALL SWAP2 POP POP RETURNDATASIZE DUP1 PUSH1 0x0 DUP2 EQ PUSH2 0x96D JUMPI PUSH1 0x40 MLOAD SWAP2 POP PUSH1 0x1F NOT PUSH1 0x3F RETURNDATASIZE ADD AND DUP3 ADD PUSH1 0x40 MSTORE RETURNDATASIZE DUP3 MSTORE RETURNDATASIZE PUSH1 0x0 PUSH1 0x20 DUP5 ADD RETURNDATACOPY PUSH2 0x972 JUMP JUMPDEST PUSH1 0x60 SWAP2 POP JUMPDEST POP SWAP2 POP SWAP2 POP DUP2 PUSH2 0x9C4 JUMPI PUSH1 0x40 MLOAD PUSH3 0x461BCD PUSH1 0xE5 SHL DUP2 MSTORE PUSH1 0x20 PUSH1 0x4 DUP3 ADD MSTORE PUSH1 0x1C PUSH1 0x24 DUP3 ADD MSTORE PUSH32 0x46756E6374696F6E2063616C6C206E6F74207375636365737366756C00000000 PUSH1 0x44 DUP3 ADD MSTORE PUSH1 0x64 ADD PUSH2 0x69A JUMP JUMPDEST SWAP9 SWAP8 POP POP POP POP POP POP POP POP JUMP JUMPDEST PUSH1 0x11 SLOAD PUSH1 0xB SLOAD PUSH1 0x40 MLOAD PUSH4 0x23B872DD PUSH1 0xE0 SHL DUP2 MSTORE ORIGIN PUSH1 0x4 DUP3 ADD MSTORE ADDRESS PUSH1 0x24 DUP3 ADD MSTORE PUSH1 0x44 DUP2 ADD SWAP2 SWAP1 SWAP2 MSTORE PUSH1 0x1 PUSH1 0x1 PUSH1 0xA0 SHL SUB SWAP1 SWAP2 AND SWAP1 PUSH4 0x23B872DD SWAP1 PUSH1 0x64 ADD PUSH1 0x20 PUSH1 0x40 MLOAD DUP1 DUP4 SUB DUP2 PUSH1 0x0 DUP8 GAS CALL ISZERO DUP1 ISZERO PUSH2 0xA2B JUMPI RETURNDATASIZE PUSH1 0x0 DUP1 RETURNDATACOPY RETURNDATASIZE PUSH1 0x0 REVERT JUMPDEST POP POP POP POP PUSH1 0x40 MLOAD RETURNDATASIZE PUSH1 0x1F NOT PUSH1 0x1F DUP3 ADD AND DUP3 ADD DUP1 PUSH1 0x40 MSTORE POP DUP2 ADD SWAP1 PUSH2 0xA4F SWAP2 SWAP1 PUSH2 0x23B9 JUMP JUMPDEST PUSH2 0xAC1 JUMPI PUSH1 0x40 MLOAD PUSH3 0x461BCD PUSH1 0xE5 SHL DUP2 MSTORE PUSH1 0x20 PUSH1 0x4 DUP3 ADD MSTORE PUSH1 0x39 PUSH1 0x24 DUP3 ADD MSTORE PUSH32 0x4661696C65643A20506C65617365207061792074686520617070726F70726961 PUSH1 0x44 DUP3 ADD MSTORE PUSH32 0x7465204F4E474F494E545F4D494E545F50524943452066656500000000000000 PUSH1 0x64 DUP3 ADD MSTORE PUSH1 0x84 ADD PUSH2 0x69A JUMP JUMPDEST CALLER PUSH1 0x0 SWAP1 DUP2 MSTORE PUSH1 0xD PUSH1 0x20 MSTORE PUSH1 0x40 SWAP1 KECCAK256 DUP1 SLOAD PUSH1 0xFF NOT AND PUSH1 0x1 OR SWAP1 SSTORE PUSH2 0xAE3 PUSH2 0x151D JUMP JUMPDEST JUMP JUMPDEST PUSH2 0xAF6 PUSH2 0xAF0 PUSH2 0x139D JUMP JUMPDEST DUP3 PUSH2 0x154B JUMP JUMPDEST PUSH2 0xB12 JUMPI PUSH1 0x40 MLOAD PUSH3 0x461BCD PUSH1 0xE5 SHL DUP2 MSTORE PUSH1 0x4 ADD PUSH2 0x69A SWAP1 PUSH2 0x23D6 JUMP JUMPDEST PUSH2 0x7E1 DUP4 DUP4 DUP4 PUSH2 0x160D JUMP JUMPDEST PUSH2 0xB25 PUSH2 0x139D JUMP JUMPDEST PUSH1 0x1 PUSH1 0x1 PUSH1 0xA0 SHL SUB AND PUSH2 0xB40 PUSH1 0x7 SLOAD PUSH1 0x1 PUSH1 0x1 PUSH1 0xA0 SHL SUB AND SWAP1 JUMP JUMPDEST PUSH1 0x1 PUSH1 0x1 PUSH1 0xA0 SHL SUB AND EQ PUSH2 0xB66 JUMPI PUSH1 0x40 MLOAD PUSH3 0x461BCD PUSH1 0xE5 SHL DUP2 MSTORE PUSH1 0x4 ADD PUSH2 0x69A SWAP1 PUSH2 0x2427 JUMP JUMPDEST PUSH1 0x40 MLOAD CALLER SWAP1 DUP3 ISZERO PUSH2 0x8FC MUL SWAP1 DUP4 SWAP1 PUSH1 0x0 DUP2 DUP2 DUP2 DUP6 DUP9 DUP9 CALL SWAP4 POP POP POP POP ISZERO DUP1 ISZERO PUSH2 0xB93 JUMPI RETURNDATASIZE PUSH1 0x0 DUP1 RETURNDATACOPY RETURNDATASIZE PUSH1 0x0 REVERT JUMPDEST POP POP JUMP JUMPDEST PUSH2 0x7E1 DUP4 DUP4 DUP4 PUSH1 0x40 MLOAD DUP1 PUSH1 0x20 ADD PUSH1 0x40 MSTORE DUP1 PUSH1 0x0 DUP2 MSTORE POP PUSH2 0xD9C JUMP JUMPDEST PUSH1 0x0 DUP2 DUP2 MSTORE PUSH1 0x2 PUSH1 0x20 MSTORE PUSH1 0x40 DUP2 KECCAK256 SLOAD PUSH1 0x1 PUSH1 0x1 PUSH1 0xA0 SHL SUB AND DUP1 PUSH2 0x59A JUMPI PUSH1 0x40 MLOAD PUSH3 0x461BCD PUSH1 0xE5 SHL DUP2 MSTORE PUSH1 0x20 PUSH1 0x4 DUP3 ADD MSTORE PUSH1 0x29 PUSH1 0x24 DUP3 ADD MSTORE PUSH32 0x4552433732313A206F776E657220717565727920666F72206E6F6E6578697374 PUSH1 0x44 DUP3 ADD MSTORE PUSH9 0x32B73A103A37B5B2B7 PUSH1 0xB9 SHL PUSH1 0x64 DUP3 ADD MSTORE PUSH1 0x84 ADD PUSH2 0x69A JUMP JUMPDEST PUSH1 0x0 PUSH1 0x1 PUSH1 0x1 PUSH1 0xA0 SHL SUB DUP3 AND PUSH2 0xC94 JUMPI PUSH1 0x40 MLOAD PUSH3 0x461BCD PUSH1 0xE5 SHL DUP2 MSTORE PUSH1 0x20 PUSH1 0x4 DUP3 ADD MSTORE PUSH1 0x2A PUSH1 0x24 DUP3 ADD MSTORE PUSH32 0x4552433732313A2062616C616E636520717565727920666F7220746865207A65 PUSH1 0x44 DUP3 ADD MSTORE PUSH10 0x726F2061646472657373 PUSH1 0xB0 SHL PUSH1 0x64 DUP3 ADD MSTORE PUSH1 0x84 ADD PUSH2 0x69A JUMP JUMPDEST POP PUSH1 0x1 PUSH1 0x1 PUSH1 0xA0 SHL SUB AND PUSH1 0x0 SWAP1 DUP2 MSTORE PUSH1 0x3 PUSH1 0x20 MSTORE PUSH1 0x40 SWAP1 KECCAK256 SLOAD SWAP1 JUMP JUMPDEST PUSH2 0xCB8 PUSH2 0x139D JUMP JUMPDEST PUSH1 0x1 PUSH1 0x1 PUSH1 0xA0 SHL SUB AND PUSH2 0xCD3 PUSH1 0x7 SLOAD PUSH1 0x1 PUSH1 0x1 PUSH1 0xA0 SHL SUB AND SWAP1 JUMP JUMPDEST PUSH1 0x1 PUSH1 0x1 PUSH1 0xA0 SHL SUB AND EQ PUSH2 0xCF9 JUMPI PUSH1 0x40 MLOAD PUSH3 0x461BCD PUSH1 0xE5 SHL DUP2 MSTORE PUSH1 0x4 ADD PUSH2 0x69A SWAP1 PUSH2 0x2427 JUMP JUMPDEST PUSH2 0xAE3 PUSH1 0x0 PUSH2 0x17A9 JUMP JUMPDEST PUSH2 0xD0B PUSH2 0x139D JUMP JUMPDEST PUSH1 0x1 PUSH1 0x1 PUSH1 0xA0 SHL SUB AND PUSH2 0xD26 PUSH1 0x7 SLOAD PUSH1 0x1 PUSH1 0x1 PUSH1 0xA0 SHL SUB AND SWAP1 JUMP JUMPDEST PUSH1 0x1 PUSH1 0x1 PUSH1 0xA0 SHL SUB AND EQ PUSH2 0xD4C JUMPI PUSH1 0x40 MLOAD PUSH3 0x461BCD PUSH1 0xE5 SHL DUP2 MSTORE PUSH1 0x4 ADD PUSH2 0x69A SWAP1 PUSH2 0x2427 JUMP JUMPDEST PUSH1 0x40 MLOAD CALLER SWAP1 SELFBALANCE DUP1 ISZERO PUSH2 0x8FC MUL SWAP2 PUSH1 0x0 DUP2 DUP2 DUP2 DUP6 DUP9 DUP9 CALL SWAP4 POP POP POP POP ISZERO DUP1 ISZERO PUSH2 0xD78 JUMPI RETURNDATASIZE PUSH1 0x0 DUP1 RETURNDATACOPY RETURNDATASIZE PUSH1 0x0 REVERT JUMPDEST POP JUMP JUMPDEST PUSH1 0x60 PUSH1 0x1 DUP1 SLOAD PUSH2 0x5AF SWAP1 PUSH2 0x22F7 JUMP JUMPDEST PUSH2 0xB93 PUSH2 0xD95 PUSH2 0x139D JUMP JUMPDEST DUP4 DUP4 PUSH2 0x17FB JUMP JUMPDEST PUSH2 0xDAD PUSH2 0xDA7 PUSH2 0x139D JUMP JUMPDEST DUP4 PUSH2 0x154B JUMP JUMPDEST PUSH2 0xDC9 JUMPI PUSH1 0x40 MLOAD PUSH3 0x461BCD PUSH1 0xE5 SHL DUP2 MSTORE PUSH1 0x4 ADD PUSH2 0x69A SWAP1 PUSH2 0x23D6 JUMP JUMPDEST PUSH2 0xDD5 DUP5 DUP5 DUP5 DUP5 PUSH2 0x18C9 JUMP JUMPDEST POP POP POP POP JUMP JUMPDEST PUSH1 0x60 PUSH2 0xDE6 DUP3 PUSH2 0x1380 JUMP JUMPDEST PUSH2 0xE4C JUMPI PUSH1 0x40 MLOAD PUSH3 0x461BCD PUSH1 0xE5 SHL DUP2 MSTORE PUSH1 0x20 PUSH1 0x4 DUP3 ADD MSTORE PUSH1 0x31 PUSH1 0x24 DUP3 ADD MSTORE PUSH32 0x45524337323155524953746F726167653A2055524920717565727920666F7220 PUSH1 0x44 DUP3 ADD MSTORE PUSH17 0x3737B732BC34B9BA32B73A103A37B5B2B7 PUSH1 0x79 SHL PUSH1 0x64 DUP3 ADD MSTORE PUSH1 0x84 ADD PUSH2 0x69A JUMP JUMPDEST PUSH1 0x0 DUP3 DUP2 MSTORE PUSH1 0x6 PUSH1 0x20 MSTORE PUSH1 0x40 DUP2 KECCAK256 DUP1 SLOAD PUSH2 0xE65 SWAP1 PUSH2 0x22F7 JUMP JUMPDEST DUP1 PUSH1 0x1F ADD PUSH1 0x20 DUP1 SWAP2 DIV MUL PUSH1 0x20 ADD PUSH1 0x40 MLOAD SWAP1 DUP2 ADD PUSH1 0x40 MSTORE DUP1 SWAP3 SWAP2 SWAP1 DUP2 DUP2 MSTORE PUSH1 0x20 ADD DUP3 DUP1 SLOAD PUSH2 0xE91 SWAP1 PUSH2 0x22F7 JUMP JUMPDEST DUP1 ISZERO PUSH2 0xEDE JUMPI DUP1 PUSH1 0x1F LT PUSH2 0xEB3 JUMPI PUSH2 0x100 DUP1 DUP4 SLOAD DIV MUL DUP4 MSTORE SWAP2 PUSH1 0x20 ADD SWAP2 PUSH2 0xEDE JUMP JUMPDEST DUP3 ADD SWAP2 SWAP1 PUSH1 0x0 MSTORE PUSH1 0x20 PUSH1 0x0 KECCAK256 SWAP1 JUMPDEST DUP2 SLOAD DUP2 MSTORE SWAP1 PUSH1 0x1 ADD SWAP1 PUSH1 0x20 ADD DUP1 DUP4 GT PUSH2 0xEC1 JUMPI DUP3 SWAP1 SUB PUSH1 0x1F AND DUP3 ADD SWAP2 JUMPDEST POP POP POP POP POP SWAP1 POP PUSH1 0x0 PUSH2 0xEFC PUSH1 0x40 DUP1 MLOAD PUSH1 0x20 DUP2 ADD SWAP1 SWAP2 MSTORE PUSH1 0x0 DUP2 MSTORE SWAP1 JUMP JUMPDEST SWAP1 POP DUP1 MLOAD PUSH1 0x0 SUB PUSH2 0xF0E JUMPI POP SWAP3 SWAP2 POP POP JUMP JUMPDEST DUP2 MLOAD ISZERO PUSH2 0xF40 JUMPI DUP1 DUP3 PUSH1 0x40 MLOAD PUSH1 0x20 ADD PUSH2 0xF28 SWAP3 SWAP2 SWAP1 PUSH2 0x245C JUMP JUMPDEST PUSH1 0x40 MLOAD PUSH1 0x20 DUP2 DUP4 SUB SUB DUP2 MSTORE SWAP1 PUSH1 0x40 MSTORE SWAP3 POP POP POP SWAP2 SWAP1 POP JUMP JUMPDEST PUSH2 0xF49 DUP5 PUSH2 0x18FC JUMP JUMPDEST SWAP5 SWAP4 POP POP POP POP JUMP JUMPDEST CALLER PUSH1 0x0 SWAP1 DUP2 MSTORE PUSH1 0xD PUSH1 0x20 MSTORE PUSH1 0x40 DUP2 KECCAK256 SLOAD PUSH1 0xFF AND ISZERO ISZERO PUSH1 0x1 EQ PUSH2 0x1001 JUMPI PUSH1 0x40 MLOAD PUSH3 0x461BCD PUSH1 0xE5 SHL DUP2 MSTORE PUSH1 0x20 PUSH1 0x4 DUP3 ADD MSTORE PUSH1 0x5C PUSH1 0x24 DUP3 ADD MSTORE PUSH32 0x506C61796572206E6F7420616C6C6F77656420746F206D696E742E20506C6561 PUSH1 0x44 DUP3 ADD MSTORE PUSH32 0x7365207061792074686520617070726F707269617465204F4E474F494E545F4D PUSH1 0x64 DUP3 ADD MSTORE PUSH32 0x494E545F505249434520666565206265666F7265206D696E74696E6700000000 PUSH1 0x84 DUP3 ADD MSTORE PUSH1 0xA4 ADD PUSH2 0x69A JUMP JUMPDEST PUSH1 0x1 PUSH1 0x1 PUSH1 0xD8 SHL SUB NOT DUP3 AND PUSH1 0x0 SWAP1 DUP2 MSTORE PUSH1 0xE PUSH1 0x20 MSTORE PUSH1 0x40 SWAP1 KECCAK256 SLOAD PUSH1 0xFF AND ISZERO PUSH2 0x1086 JUMPI PUSH1 0x40 MLOAD PUSH3 0x461BCD PUSH1 0xE5 SHL DUP2 MSTORE PUSH1 0x20 PUSH1 0x4 DUP3 ADD MSTORE PUSH1 0x32 PUSH1 0x24 DUP3 ADD MSTORE PUSH32 0x54686520776F72642068617320616C7265616479206265656E206D696E746564 PUSH1 0x44 DUP3 ADD MSTORE PUSH18 0x10313C9030B737BA3432B910383630BCB2B9 PUSH1 0x71 SHL PUSH1 0x64 DUP3 ADD MSTORE PUSH1 0x84 ADD PUSH2 0x69A JUMP JUMPDEST CALLER ORIGIN EQ PUSH2 0x10BF JUMPI PUSH1 0x40 MLOAD PUSH3 0x461BCD PUSH1 0xE5 SHL DUP2 MSTORE PUSH1 0x20 PUSH1 0x4 DUP3 ADD MSTORE PUSH1 0x7 PUSH1 0x24 DUP3 ADD MSTORE PUSH7 0x4E6F20426F7473 PUSH1 0xC8 SHL PUSH1 0x44 DUP3 ADD MSTORE PUSH1 0x64 ADD PUSH2 0x69A JUMP JUMPDEST CALLER PUSH1 0x0 SWAP1 DUP2 MSTORE PUSH1 0xD PUSH1 0x20 SWAP1 DUP2 MSTORE PUSH1 0x40 DUP1 DUP4 KECCAK256 DUP1 SLOAD PUSH1 0xFF NOT SWAP1 DUP2 AND SWAP1 SWAP2 SSTORE PUSH1 0x1 PUSH1 0x1 PUSH1 0xD8 SHL SUB NOT DUP7 AND DUP5 MSTORE PUSH1 0xE SWAP1 SWAP3 MSTORE DUP3 KECCAK256 DUP1 SLOAD SWAP1 SWAP2 AND PUSH1 0x1 OR SWAP1 SSTORE PUSH1 0xA SLOAD SWAP1 POP PUSH1 0x60 PUSH2 0x110F PUSH1 0xA DUP1 SLOAD PUSH1 0x1 ADD SWAP1 SSTORE JUMP JUMPDEST PUSH1 0x10 DUP5 PUSH1 0x40 MLOAD PUSH1 0x20 ADD PUSH2 0x1123 SWAP3 SWAP2 SWAP1 PUSH2 0x248B JUMP JUMPDEST PUSH1 0x40 MLOAD PUSH1 0x20 DUP2 DUP4 SUB SUB DUP2 MSTORE SWAP1 PUSH1 0x40 MSTORE SWAP1 POP PUSH2 0x113E CALLER DUP4 PUSH2 0x19D3 JUMP JUMPDEST PUSH2 0x1148 DUP3 DUP3 PUSH2 0x19ED JUMP JUMPDEST PUSH1 0xFF DUP6 AND PUSH1 0x0 SWAP1 DUP2 MSTORE PUSH1 0xF PUSH1 0x20 MSTORE PUSH1 0x40 SWAP1 KECCAK256 SLOAD ISZERO PUSH2 0x11A0 JUMPI PUSH1 0xFF DUP6 AND PUSH1 0x0 SWAP1 DUP2 MSTORE PUSH1 0xF PUSH1 0x20 MSTORE PUSH1 0x40 DUP1 DUP3 KECCAK256 SLOAD SWAP1 MLOAD CALLER SWAP3 DUP3 ISZERO PUSH2 0x8FC MUL SWAP3 SWAP2 SWAP1 DUP2 DUP2 DUP2 DUP6 DUP9 DUP9 CALL SWAP4 POP POP POP POP ISZERO DUP1 ISZERO PUSH2 0x119E JUMPI RETURNDATASIZE PUSH1 0x0 DUP1 RETURNDATACOPY RETURNDATASIZE PUSH1 0x0 REVERT JUMPDEST POP JUMPDEST POP SWAP4 SWAP3 POP POP POP JUMP JUMPDEST PUSH1 0xC SLOAD PUSH1 0x40 MLOAD PUSH4 0xC4552791 PUSH1 0xE0 SHL DUP2 MSTORE PUSH1 0x1 PUSH1 0x1 PUSH1 0xA0 SHL SUB DUP5 DUP2 AND PUSH1 0x4 DUP4 ADD MSTORE PUSH1 0x0 SWAP3 DUP2 AND SWAP2 SWAP1 DUP5 AND SWAP1 DUP3 SWAP1 PUSH4 0xC4552791 SWAP1 PUSH1 0x24 ADD PUSH1 0x20 PUSH1 0x40 MLOAD DUP1 DUP4 SUB DUP2 DUP7 GAS STATICCALL ISZERO DUP1 ISZERO PUSH2 0x11FA JUMPI RETURNDATASIZE PUSH1 0x0 DUP1 RETURNDATACOPY RETURNDATASIZE PUSH1 0x0 REVERT JUMPDEST POP POP POP POP PUSH1 0x40 MLOAD RETURNDATASIZE PUSH1 0x1F NOT PUSH1 0x1F DUP3 ADD AND DUP3 ADD DUP1 PUSH1 0x40 MSTORE POP DUP2 ADD SWAP1 PUSH2 0x121E SWAP2 SWAP1 PUSH2 0x2551 JUMP JUMPDEST PUSH1 0x1 PUSH1 0x1 PUSH1 0xA0 SHL SUB AND SUB PUSH2 0x1236 JUMPI PUSH1 0x1 SWAP2 POP POP PUSH2 0x59A JUMP JUMPDEST PUSH1 0x1 PUSH1 0x1 PUSH1 0xA0 SHL SUB DUP1 DUP6 AND PUSH1 0x0 SWAP1 DUP2 MSTORE PUSH1 0x5 PUSH1 0x20 SWAP1 DUP2 MSTORE PUSH1 0x40 DUP1 DUP4 KECCAK256 SWAP4 DUP8 AND DUP4 MSTORE SWAP3 SWAP1 MSTORE KECCAK256 SLOAD PUSH1 0xFF AND PUSH2 0xF49 JUMP JUMPDEST PUSH2 0x126C PUSH2 0x139D JUMP JUMPDEST PUSH1 0x1 PUSH1 0x1 PUSH1 0xA0 SHL SUB AND PUSH2 0x1287 PUSH1 0x7 SLOAD PUSH1 0x1 PUSH1 0x1 PUSH1 0xA0 SHL SUB AND SWAP1 JUMP JUMPDEST PUSH1 0x1 PUSH1 0x1 PUSH1 0xA0 SHL SUB AND EQ PUSH2 0x12AD JUMPI PUSH1 0x40 MLOAD PUSH3 0x461BCD PUSH1 0xE5 SHL DUP2 MSTORE PUSH1 0x4 ADD PUSH2 0x69A SWAP1 PUSH2 0x2427 JUMP JUMPDEST PUSH1 0x1 PUSH1 0x1 PUSH1 0xA0 SHL SUB DUP2 AND PUSH2 0x1312 JUMPI PUSH1 0x40 MLOAD PUSH3 0x461BCD PUSH1 0xE5 SHL DUP2 MSTORE PUSH1 0x20 PUSH1 0x4 DUP3 ADD MSTORE PUSH1 0x26 PUSH1 0x24 DUP3 ADD MSTORE PUSH32 0x4F776E61626C653A206E6577206F776E657220697320746865207A65726F2061 PUSH1 0x44 DUP3 ADD MSTORE PUSH6 0x646472657373 PUSH1 0xD0 SHL PUSH1 0x64 DUP3 ADD MSTORE PUSH1 0x84 ADD PUSH2 0x69A JUMP JUMPDEST PUSH2 0xD78 DUP2 PUSH2 0x17A9 JUMP JUMPDEST DUP1 SLOAD PUSH1 0x1 ADD SWAP1 SSTORE JUMP JUMPDEST PUSH1 0x0 ADDRESS CALLER SUB PUSH2 0x137A JUMPI PUSH1 0x0 DUP1 CALLDATASIZE DUP1 DUP1 PUSH1 0x1F ADD PUSH1 0x20 DUP1 SWAP2 DIV MUL PUSH1 0x20 ADD PUSH1 0x40 MLOAD SWAP1 DUP2 ADD PUSH1 0x40 MSTORE DUP1 SWAP4 SWAP3 SWAP2 SWAP1 DUP2 DUP2 MSTORE PUSH1 0x20 ADD DUP4 DUP4 DUP1 DUP3 DUP5 CALLDATACOPY PUSH1 0x0 SWAP3 ADD SWAP2 SWAP1 SWAP2 MSTORE POP POP POP POP CALLDATASIZE ADD MLOAD PUSH1 0x1 PUSH1 0x1 PUSH1 0xA0 SHL SUB AND SWAP2 POP PUSH2 0x137D SWAP1 POP JUMP JUMPDEST POP CALLER JUMPDEST SWAP1 JUMP JUMPDEST PUSH1 0x0 SWAP1 DUP2 MSTORE PUSH1 0x2 PUSH1 0x20 MSTORE PUSH1 0x40 SWAP1 KECCAK256 SLOAD PUSH1 0x1 PUSH1 0x1 PUSH1 0xA0 SHL SUB AND ISZERO ISZERO SWAP1 JUMP JUMPDEST PUSH1 0x0 PUSH2 0x13A7 PUSH2 0x1324 JUMP JUMPDEST SWAP1 POP SWAP1 JUMP JUMPDEST PUSH1 0x0 DUP2 DUP2 MSTORE PUSH1 0x4 PUSH1 0x20 MSTORE PUSH1 0x40 SWAP1 KECCAK256 DUP1 SLOAD PUSH1 0x1 PUSH1 0x1 PUSH1 0xA0 SHL SUB NOT AND PUSH1 0x1 PUSH1 0x1 PUSH1 0xA0 SHL SUB DUP5 AND SWAP1 DUP2 OR SWAP1 SWAP2 SSTORE DUP2 SWAP1 PUSH2 0x13E1 DUP3 PUSH2 0xBB2 JUMP JUMPDEST PUSH1 0x1 PUSH1 0x1 PUSH1 0xA0 SHL SUB AND PUSH32 0x8C5BE1E5EBEC7D5BD14F71427D1E84F3DD0314C0F7B2291E5B200AC8C7C3B925 PUSH1 0x40 MLOAD PUSH1 0x40 MLOAD DUP1 SWAP2 SUB SWAP1 LOG4 POP POP JUMP JUMPDEST PUSH1 0x0 PUSH1 0x1 PUSH1 0x1 PUSH1 0xA0 SHL SUB DUP7 AND PUSH2 0x1480 JUMPI PUSH1 0x40 MLOAD PUSH3 0x461BCD PUSH1 0xE5 SHL DUP2 MSTORE PUSH1 0x20 PUSH1 0x4 DUP3 ADD MSTORE PUSH1 0x25 PUSH1 0x24 DUP3 ADD MSTORE PUSH32 0x4E61746976654D6574615472616E73616374696F6E3A20494E56414C49445F53 PUSH1 0x44 DUP3 ADD MSTORE PUSH5 0x24A3A722A9 PUSH1 0xD9 SHL PUSH1 0x64 DUP3 ADD MSTORE PUSH1 0x84 ADD PUSH2 0x69A JUMP JUMPDEST PUSH1 0x1 PUSH2 0x1493 PUSH2 0x148E DUP8 PUSH2 0x1A78 JUMP JUMPDEST PUSH2 0x1AF5 JUMP JUMPDEST PUSH1 0x40 DUP1 MLOAD PUSH1 0x0 DUP2 MSTORE PUSH1 0x20 DUP2 ADD DUP1 DUP4 MSTORE SWAP3 SWAP1 SWAP3 MSTORE PUSH1 0xFF DUP6 AND SWAP1 DUP3 ADD MSTORE PUSH1 0x60 DUP2 ADD DUP7 SWAP1 MSTORE PUSH1 0x80 DUP2 ADD DUP6 SWAP1 MSTORE PUSH1 0xA0 ADD PUSH1 0x20 PUSH1 0x40 MLOAD PUSH1 0x20 DUP2 SUB SWAP1 DUP1 DUP5 SUB SWAP1 DUP6 GAS STATICCALL ISZERO DUP1 ISZERO PUSH2 0x14E1 JUMPI RETURNDATASIZE PUSH1 0x0 DUP1 RETURNDATACOPY RETURNDATASIZE PUSH1 0x0 REVERT JUMPDEST POP POP POP PUSH1 0x20 PUSH1 0x40 MLOAD SUB MLOAD PUSH1 0x1 PUSH1 0x1 PUSH1 0xA0 SHL SUB AND DUP7 PUSH1 0x1 PUSH1 0x1 PUSH1 0xA0 SHL SUB AND EQ SWAP1 POP SWAP6 SWAP5 POP POP POP POP POP JUMP JUMPDEST PUSH1 0x0 PUSH2 0x1516 DUP3 DUP5 PUSH2 0x2584 JUMP JUMPDEST SWAP4 SWAP3 POP POP POP JUMP JUMPDEST PUSH1 0xA SLOAD PUSH2 0x3FF AND PUSH1 0x0 SUB PUSH2 0xAE3 JUMPI PUSH7 0x38D7EA4C68000 PUSH1 0xB PUSH1 0x0 DUP3 DUP3 SLOAD PUSH2 0x1544 SWAP2 SWAP1 PUSH2 0x2584 JUMP JUMPDEST SWAP1 SWAP2 SSTORE POP POP JUMP JUMPDEST PUSH1 0x0 PUSH2 0x1556 DUP3 PUSH2 0x1380 JUMP JUMPDEST PUSH2 0x15B7 JUMPI PUSH1 0x40 MLOAD PUSH3 0x461BCD PUSH1 0xE5 SHL DUP2 MSTORE PUSH1 0x20 PUSH1 0x4 DUP3 ADD MSTORE PUSH1 0x2C PUSH1 0x24 DUP3 ADD MSTORE PUSH32 0x4552433732313A206F70657261746F7220717565727920666F72206E6F6E6578 PUSH1 0x44 DUP3 ADD MSTORE PUSH12 0x34B9BA32B73A103A37B5B2B7 PUSH1 0xA1 SHL PUSH1 0x64 DUP3 ADD MSTORE PUSH1 0x84 ADD PUSH2 0x69A JUMP JUMPDEST PUSH1 0x0 PUSH2 0x15C2 DUP4 PUSH2 0xBB2 JUMP JUMPDEST SWAP1 POP DUP1 PUSH1 0x1 PUSH1 0x1 PUSH1 0xA0 SHL SUB AND DUP5 PUSH1 0x1 PUSH1 0x1 PUSH1 0xA0 SHL SUB AND EQ DUP1 PUSH2 0x15FD JUMPI POP DUP4 PUSH1 0x1 PUSH1 0x1 PUSH1 0xA0 SHL SUB AND PUSH2 0x15F2 DUP5 PUSH2 0x632 JUMP JUMPDEST PUSH1 0x1 PUSH1 0x1 PUSH1 0xA0 SHL SUB AND EQ JUMPDEST DUP1 PUSH2 0xF49 JUMPI POP PUSH2 0xF49 DUP2 DUP6 PUSH2 0x11A8 JUMP JUMPDEST DUP3 PUSH1 0x1 PUSH1 0x1 PUSH1 0xA0 SHL SUB AND PUSH2 0x1620 DUP3 PUSH2 0xBB2 JUMP JUMPDEST PUSH1 0x1 PUSH1 0x1 PUSH1 0xA0 SHL SUB AND EQ PUSH2 0x1684 JUMPI PUSH1 0x40 MLOAD PUSH3 0x461BCD PUSH1 0xE5 SHL DUP2 MSTORE PUSH1 0x20 PUSH1 0x4 DUP3 ADD MSTORE PUSH1 0x25 PUSH1 0x24 DUP3 ADD MSTORE PUSH32 0x4552433732313A207472616E736665722066726F6D20696E636F727265637420 PUSH1 0x44 DUP3 ADD MSTORE PUSH5 0x37BBB732B9 PUSH1 0xD9 SHL PUSH1 0x64 DUP3 ADD MSTORE PUSH1 0x84 ADD PUSH2 0x69A JUMP JUMPDEST PUSH1 0x1 PUSH1 0x1 PUSH1 0xA0 SHL SUB DUP3 AND PUSH2 0x16E6 JUMPI PUSH1 0x40 MLOAD PUSH3 0x461BCD PUSH1 0xE5 SHL DUP2 MSTORE PUSH1 0x20 PUSH1 0x4 DUP3 ADD MSTORE PUSH1 0x24 DUP1 DUP3 ADD MSTORE PUSH32 0x4552433732313A207472616E7366657220746F20746865207A65726F20616464 PUSH1 0x44 DUP3 ADD MSTORE PUSH4 0x72657373 PUSH1 0xE0 SHL PUSH1 0x64 DUP3 ADD MSTORE PUSH1 0x84 ADD PUSH2 0x69A JUMP JUMPDEST PUSH2 0x16F1 PUSH1 0x0 DUP3 PUSH2 0x13AC JUMP JUMPDEST PUSH1 0x1 PUSH1 0x1 PUSH1 0xA0 SHL SUB DUP4 AND PUSH1 0x0 SWAP1 DUP2 MSTORE PUSH1 0x3 PUSH1 0x20 MSTORE PUSH1 0x40 DUP2 KECCAK256 DUP1 SLOAD PUSH1 0x1 SWAP3 SWAP1 PUSH2 0x171A SWAP1 DUP5 SWAP1 PUSH2 0x259C JUMP JUMPDEST SWAP1 SWAP2 SSTORE POP POP PUSH1 0x1 PUSH1 0x1 PUSH1 0xA0 SHL SUB DUP3 AND PUSH1 0x0 SWAP1 DUP2 MSTORE PUSH1 0x3 PUSH1 0x20 MSTORE PUSH1 0x40 DUP2 KECCAK256 DUP1 SLOAD PUSH1 0x1 SWAP3 SWAP1 PUSH2 0x1748 SWAP1 DUP5 SWAP1 PUSH2 0x2584 JUMP JUMPDEST SWAP1 SWAP2 SSTORE POP POP PUSH1 0x0 DUP2 DUP2 MSTORE PUSH1 0x2 PUSH1 0x20 MSTORE PUSH1 0x40 DUP1 DUP3 KECCAK256 DUP1 SLOAD PUSH1 0x1 PUSH1 0x1 PUSH1 0xA0 SHL SUB NOT AND PUSH1 0x1 PUSH1 0x1 PUSH1 0xA0 SHL SUB DUP7 DUP2 AND SWAP2 DUP3 OR SWAP1 SWAP3 SSTORE SWAP2 MLOAD DUP5 SWAP4 SWAP2 DUP8 AND SWAP2 PUSH32 0xDDF252AD1BE2C89B69C2B068FC378DAA952BA7F163C4A11628F55A4DF523B3EF SWAP2 LOG4 POP POP POP JUMP JUMPDEST PUSH1 0x7 DUP1 SLOAD PUSH1 0x1 PUSH1 0x1 PUSH1 0xA0 SHL SUB DUP4 DUP2 AND PUSH1 0x1 PUSH1 0x1 PUSH1 0xA0 SHL SUB NOT DUP4 AND DUP2 OR SWAP1 SWAP4 SSTORE PUSH1 0x40 MLOAD SWAP2 AND SWAP2 SWAP1 DUP3 SWAP1 PUSH32 0x8BE0079C531659141344CD1FD0A4F28419497F9722A3DAAFE3B4186F6B6457E0 SWAP1 PUSH1 0x0 SWAP1 LOG3 POP POP JUMP JUMPDEST DUP2 PUSH1 0x1 PUSH1 0x1 PUSH1 0xA0 SHL SUB AND DUP4 PUSH1 0x1 PUSH1 0x1 PUSH1 0xA0 SHL SUB AND SUB PUSH2 0x185C JUMPI PUSH1 0x40 MLOAD PUSH3 0x461BCD PUSH1 0xE5 SHL DUP2 MSTORE PUSH1 0x20 PUSH1 0x4 DUP3 ADD MSTORE PUSH1 0x19 PUSH1 0x24 DUP3 ADD MSTORE PUSH32 0x4552433732313A20617070726F766520746F2063616C6C657200000000000000 PUSH1 0x44 DUP3 ADD MSTORE PUSH1 0x64 ADD PUSH2 0x69A JUMP JUMPDEST PUSH1 0x1 PUSH1 0x1 PUSH1 0xA0 SHL SUB DUP4 DUP2 AND PUSH1 0x0 DUP2 DUP2 MSTORE PUSH1 0x5 PUSH1 0x20 SWAP1 DUP2 MSTORE PUSH1 0x40 DUP1 DUP4 KECCAK256 SWAP5 DUP8 AND DUP1 DUP5 MSTORE SWAP5 DUP3 MSTORE SWAP2 DUP3 SWAP1 KECCAK256 DUP1 SLOAD PUSH1 0xFF NOT AND DUP7 ISZERO ISZERO SWAP1 DUP2 OR SWAP1 SWAP2 SSTORE SWAP2 MLOAD SWAP2 DUP3 MSTORE PUSH32 0x17307EAB39AB6107E8899845AD3D59BD9653F200F220920489CA2B5937696C31 SWAP2 ADD PUSH1 0x40 MLOAD DUP1 SWAP2 SUB SWAP1 LOG3 POP POP POP JUMP JUMPDEST PUSH2 0x18D4 DUP5 DUP5 DUP5 PUSH2 0x160D JUMP JUMPDEST PUSH2 0x18E0 DUP5 DUP5 DUP5 DUP5 PUSH2 0x1B25 JUMP JUMPDEST PUSH2 0xDD5 JUMPI PUSH1 0x40 MLOAD PUSH3 0x461BCD PUSH1 0xE5 SHL DUP2 MSTORE PUSH1 0x4 ADD PUSH2 0x69A SWAP1 PUSH2 0x25B3 JUMP JUMPDEST PUSH1 0x60 PUSH2 0x1907 DUP3 PUSH2 0x1380 JUMP JUMPDEST PUSH2 0x196B JUMPI PUSH1 0x40 MLOAD PUSH3 0x461BCD PUSH1 0xE5 SHL DUP2 MSTORE PUSH1 0x20 PUSH1 0x4 DUP3 ADD MSTORE PUSH1 0x2F PUSH1 0x24 DUP3 ADD MSTORE PUSH32 0x4552433732314D657461646174613A2055524920717565727920666F72206E6F PUSH1 0x44 DUP3 ADD MSTORE PUSH15 0x3732BC34B9BA32B73A103A37B5B2B7 PUSH1 0x89 SHL PUSH1 0x64 DUP3 ADD MSTORE PUSH1 0x84 ADD PUSH2 0x69A JUMP JUMPDEST PUSH1 0x0 PUSH2 0x1982 PUSH1 0x40 DUP1 MLOAD PUSH1 0x20 DUP2 ADD SWAP1 SWAP2 MSTORE PUSH1 0x0 DUP2 MSTORE SWAP1 JUMP JUMPDEST SWAP1 POP PUSH1 0x0 DUP2 MLOAD GT PUSH2 0x19A2 JUMPI PUSH1 0x40 MLOAD DUP1 PUSH1 0x20 ADD PUSH1 0x40 MSTORE DUP1 PUSH1 0x0 DUP2 MSTORE POP PUSH2 0x1516 JUMP JUMPDEST DUP1 PUSH2 0x19AC DUP5 PUSH2 0x1C2D JUMP JUMPDEST PUSH1 0x40 MLOAD PUSH1 0x20 ADD PUSH2 0x19BD SWAP3 SWAP2 SWAP1 PUSH2 0x245C JUMP JUMPDEST PUSH1 0x40 MLOAD PUSH1 0x20 DUP2 DUP4 SUB SUB DUP2 MSTORE SWAP1 PUSH1 0x40 MSTORE SWAP4 SWAP3 POP POP POP JUMP JUMPDEST PUSH2 0xB93 DUP3 DUP3 PUSH1 0x40 MLOAD DUP1 PUSH1 0x20 ADD PUSH1 0x40 MSTORE DUP1 PUSH1 0x0 DUP2 MSTORE POP PUSH2 0x1D2E JUMP JUMPDEST PUSH2 0x19F6 DUP3 PUSH2 0x1380 JUMP JUMPDEST PUSH2 0x1A59 JUMPI PUSH1 0x40 MLOAD PUSH3 0x461BCD PUSH1 0xE5 SHL DUP2 MSTORE PUSH1 0x20 PUSH1 0x4 DUP3 ADD MSTORE PUSH1 0x2E PUSH1 0x24 DUP3 ADD MSTORE PUSH32 0x45524337323155524953746F726167653A2055524920736574206F66206E6F6E PUSH1 0x44 DUP3 ADD MSTORE PUSH14 0x32BC34B9BA32B73A103A37B5B2B7 PUSH1 0x91 SHL PUSH1 0x64 DUP3 ADD MSTORE PUSH1 0x84 ADD PUSH2 0x69A JUMP JUMPDEST PUSH1 0x0 DUP3 DUP2 MSTORE PUSH1 0x6 PUSH1 0x20 SWAP1 DUP2 MSTORE PUSH1 0x40 SWAP1 SWAP2 KECCAK256 DUP3 MLOAD PUSH2 0x7E1 SWAP3 DUP5 ADD SWAP1 PUSH2 0x1E94 JUMP JUMPDEST PUSH1 0x0 PUSH1 0x40 MLOAD DUP1 PUSH1 0x80 ADD PUSH1 0x40 MSTORE DUP1 PUSH1 0x43 DUP2 MSTORE PUSH1 0x20 ADD PUSH2 0x26CD PUSH1 0x43 SWAP2 CODECOPY DUP1 MLOAD PUSH1 0x20 SWAP2 DUP3 ADD KECCAK256 DUP4 MLOAD DUP5 DUP4 ADD MLOAD PUSH1 0x40 DUP1 DUP8 ADD MLOAD DUP1 MLOAD SWAP1 DUP7 ADD KECCAK256 SWAP1 MLOAD PUSH2 0x1AD8 SWAP6 ADD SWAP4 DUP5 MSTORE PUSH1 0x20 DUP5 ADD SWAP3 SWAP1 SWAP3 MSTORE PUSH1 0x1 PUSH1 0x1 PUSH1 0xA0 SHL SUB AND PUSH1 0x40 DUP4 ADD MSTORE PUSH1 0x60 DUP3 ADD MSTORE PUSH1 0x80 ADD SWAP1 JUMP JUMPDEST PUSH1 0x40 MLOAD PUSH1 0x20 DUP2 DUP4 SUB SUB DUP2 MSTORE SWAP1 PUSH1 0x40 MSTORE DUP1 MLOAD SWAP1 PUSH1 0x20 ADD KECCAK256 SWAP1 POP SWAP2 SWAP1 POP JUMP JUMPDEST PUSH1 0x0 PUSH2 0x1B00 PUSH1 0x8 SLOAD SWAP1 JUMP JUMPDEST PUSH1 0x40 MLOAD PUSH2 0x1901 PUSH1 0xF0 SHL PUSH1 0x20 DUP3 ADD MSTORE PUSH1 0x22 DUP2 ADD SWAP2 SWAP1 SWAP2 MSTORE PUSH1 0x42 DUP2 ADD DUP4 SWAP1 MSTORE PUSH1 0x62 ADD PUSH2 0x1AD8 JUMP JUMPDEST PUSH1 0x0 PUSH1 0x1 PUSH1 0x1 PUSH1 0xA0 SHL SUB DUP5 AND EXTCODESIZE ISZERO PUSH2 0x1C22 JUMPI DUP4 PUSH1 0x1 PUSH1 0x1 PUSH1 0xA0 SHL SUB AND PUSH4 0x150B7A02 PUSH2 0x1B4E PUSH2 0x139D JUMP JUMPDEST DUP8 DUP7 DUP7 PUSH1 0x40 MLOAD DUP6 PUSH4 0xFFFFFFFF AND PUSH1 0xE0 SHL DUP2 MSTORE PUSH1 0x4 ADD PUSH2 0x1B70 SWAP5 SWAP4 SWAP3 SWAP2 SWAP1 PUSH2 0x2605 JUMP JUMPDEST PUSH1 0x20 PUSH1 0x40 MLOAD DUP1 DUP4 SUB DUP2 PUSH1 0x0 DUP8 GAS CALL SWAP3 POP POP POP DUP1 ISZERO PUSH2 0x1BAB JUMPI POP PUSH1 0x40 DUP1 MLOAD PUSH1 0x1F RETURNDATASIZE SWAP1 DUP2 ADD PUSH1 0x1F NOT AND DUP3 ADD SWAP1 SWAP3 MSTORE PUSH2 0x1BA8 SWAP2 DUP2 ADD SWAP1 PUSH2 0x2642 JUMP JUMPDEST PUSH1 0x1 JUMPDEST PUSH2 0x1C08 JUMPI RETURNDATASIZE DUP1 DUP1 ISZERO PUSH2 0x1BD9 JUMPI PUSH1 0x40 MLOAD SWAP2 POP PUSH1 0x1F NOT PUSH1 0x3F RETURNDATASIZE ADD AND DUP3 ADD PUSH1 0x40 MSTORE RETURNDATASIZE DUP3 MSTORE RETURNDATASIZE PUSH1 0x0 PUSH1 0x20 DUP5 ADD RETURNDATACOPY PUSH2 0x1BDE JUMP JUMPDEST PUSH1 0x60 SWAP2 POP JUMPDEST POP DUP1 MLOAD PUSH1 0x0 SUB PUSH2 0x1C00 JUMPI PUSH1 0x40 MLOAD PUSH3 0x461BCD PUSH1 0xE5 SHL DUP2 MSTORE PUSH1 0x4 ADD PUSH2 0x69A SWAP1 PUSH2 0x25B3 JUMP JUMPDEST DUP1 MLOAD DUP2 PUSH1 0x20 ADD REVERT JUMPDEST PUSH1 0x1 PUSH1 0x1 PUSH1 0xE0 SHL SUB NOT AND PUSH4 0xA85BD01 PUSH1 0xE1 SHL EQ SWAP1 POP PUSH2 0xF49 JUMP JUMPDEST POP PUSH1 0x1 SWAP5 SWAP4 POP POP POP POP JUMP JUMPDEST PUSH1 0x60 DUP2 PUSH1 0x0 SUB PUSH2 0x1C54 JUMPI POP POP PUSH1 0x40 DUP1 MLOAD DUP1 DUP3 ADD SWAP1 SWAP2 MSTORE PUSH1 0x1 DUP2 MSTORE PUSH1 0x3 PUSH1 0xFC SHL PUSH1 0x20 DUP3 ADD MSTORE SWAP1 JUMP JUMPDEST DUP2 PUSH1 0x0 JUMPDEST DUP2 ISZERO PUSH2 0x1C7E JUMPI DUP1 PUSH2 0x1C68 DUP2 PUSH2 0x265F JUMP JUMPDEST SWAP2 POP PUSH2 0x1C77 SWAP1 POP PUSH1 0xA DUP4 PUSH2 0x268E JUMP JUMPDEST SWAP2 POP PUSH2 0x1C58 JUMP JUMPDEST PUSH1 0x0 DUP2 PUSH8 0xFFFFFFFFFFFFFFFF DUP2 GT ISZERO PUSH2 0x1C99 JUMPI PUSH2 0x1C99 PUSH2 0x2025 JUMP JUMPDEST PUSH1 0x40 MLOAD SWAP1 DUP1 DUP3 MSTORE DUP1 PUSH1 0x1F ADD PUSH1 0x1F NOT AND PUSH1 0x20 ADD DUP3 ADD PUSH1 0x40 MSTORE DUP1 ISZERO PUSH2 0x1CC3 JUMPI PUSH1 0x20 DUP3 ADD DUP2 DUP1 CALLDATASIZE DUP4 CALLDATACOPY ADD SWAP1 POP JUMPDEST POP SWAP1 POP JUMPDEST DUP5 ISZERO PUSH2 0xF49 JUMPI PUSH2 0x1CD8 PUSH1 0x1 DUP4 PUSH2 0x259C JUMP JUMPDEST SWAP2 POP PUSH2 0x1CE5 PUSH1 0xA DUP7 PUSH2 0x26A2 JUMP JUMPDEST PUSH2 0x1CF0 SWAP1 PUSH1 0x30 PUSH2 0x2584 JUMP JUMPDEST PUSH1 0xF8 SHL DUP2 DUP4 DUP2 MLOAD DUP2 LT PUSH2 0x1D05 JUMPI PUSH2 0x1D05 PUSH2 0x26B6 JUMP JUMPDEST PUSH1 0x20 ADD ADD SWAP1 PUSH1 0x1 PUSH1 0x1 PUSH1 0xF8 SHL SUB NOT AND SWAP1 DUP2 PUSH1 0x0 BYTE SWAP1 MSTORE8 POP PUSH2 0x1D27 PUSH1 0xA DUP7 PUSH2 0x268E JUMP JUMPDEST SWAP5 POP PUSH2 0x1CC7 JUMP JUMPDEST PUSH2 0x1D38 DUP4 DUP4 PUSH2 0x1D61 JUMP JUMPDEST PUSH2 0x1D45 PUSH1 0x0 DUP5 DUP5 DUP5 PUSH2 0x1B25 JUMP JUMPDEST PUSH2 0x7E1 JUMPI PUSH1 0x40 MLOAD PUSH3 0x461BCD PUSH1 0xE5 SHL DUP2 MSTORE PUSH1 0x4 ADD PUSH2 0x69A SWAP1 PUSH2 0x25B3 JUMP JUMPDEST PUSH1 0x1 PUSH1 0x1 PUSH1 0xA0 SHL SUB DUP3 AND PUSH2 0x1DB7 JUMPI PUSH1 0x40 MLOAD PUSH3 0x461BCD PUSH1 0xE5 SHL DUP2 MSTORE PUSH1 0x20 PUSH1 0x4 DUP3 ADD DUP2 SWAP1 MSTORE PUSH1 0x24 DUP3 ADD MSTORE PUSH32 0x4552433732313A206D696E7420746F20746865207A65726F2061646472657373 PUSH1 0x44 DUP3 ADD MSTORE PUSH1 0x64 ADD PUSH2 0x69A JUMP JUMPDEST PUSH2 0x1DC0 DUP2 PUSH2 0x1380 JUMP JUMPDEST ISZERO PUSH2 0x1E0D JUMPI PUSH1 0x40 MLOAD PUSH3 0x461BCD PUSH1 0xE5 SHL DUP2 MSTORE PUSH1 0x20 PUSH1 0x4 DUP3 ADD MSTORE PUSH1 0x1C PUSH1 0x24 DUP3 ADD MSTORE PUSH32 0x4552433732313A20746F6B656E20616C7265616479206D696E74656400000000 PUSH1 0x44 DUP3 ADD MSTORE PUSH1 0x64 ADD PUSH2 0x69A JUMP JUMPDEST PUSH1 0x1 PUSH1 0x1 PUSH1 0xA0 SHL SUB DUP3 AND PUSH1 0x0 SWAP1 DUP2 MSTORE PUSH1 0x3 PUSH1 0x20 MSTORE PUSH1 0x40 DUP2 KECCAK256 DUP1 SLOAD PUSH1 0x1 SWAP3 SWAP1 PUSH2 0x1E36 SWAP1 DUP5 SWAP1 PUSH2 0x2584 JUMP JUMPDEST SWAP1 SWAP2 SSTORE POP POP PUSH1 0x0 DUP2 DUP2 MSTORE PUSH1 0x2 PUSH1 0x20 MSTORE PUSH1 0x40 DUP1 DUP3 KECCAK256 DUP1 SLOAD PUSH1 0x1 PUSH1 0x1 PUSH1 0xA0 SHL SUB NOT AND PUSH1 0x1 PUSH1 0x1 PUSH1 0xA0 SHL SUB DUP7 AND SWAP1 DUP2 OR SWAP1 SWAP2 SSTORE SWAP1 MLOAD DUP4 SWAP3 SWAP1 PUSH32 0xDDF252AD1BE2C89B69C2B068FC378DAA952BA7F163C4A11628F55A4DF523B3EF SWAP1 DUP3 SWAP1 LOG4 POP POP JUMP JUMPDEST DUP3 DUP1 SLOAD PUSH2 0x1EA0 SWAP1 PUSH2 0x22F7 JUMP JUMPDEST SWAP1 PUSH1 0x0 MSTORE PUSH1 0x20 PUSH1 0x0 KECCAK256 SWAP1 PUSH1 0x1F ADD PUSH1 0x20 SWAP1 DIV DUP2 ADD SWAP3 DUP3 PUSH2 0x1EC2 JUMPI PUSH1 0x0 DUP6 SSTORE PUSH2 0x1F08 JUMP JUMPDEST DUP3 PUSH1 0x1F LT PUSH2 0x1EDB JUMPI DUP1 MLOAD PUSH1 0xFF NOT AND DUP4 DUP1 ADD OR DUP6 SSTORE PUSH2 0x1F08 JUMP JUMPDEST DUP3 DUP1 ADD PUSH1 0x1 ADD DUP6 SSTORE DUP3 ISZERO PUSH2 0x1F08 JUMPI SWAP2 DUP3 ADD JUMPDEST DUP3 DUP2 GT ISZERO PUSH2 0x1F08 JUMPI DUP3 MLOAD DUP3 SSTORE SWAP2 PUSH1 0x20 ADD SWAP2 SWAP1 PUSH1 0x1 ADD SWAP1 PUSH2 0x1EED JUMP JUMPDEST POP PUSH2 0x1F14 SWAP3 SWAP2 POP PUSH2 0x1F18 JUMP JUMPDEST POP SWAP1 JUMP JUMPDEST JUMPDEST DUP1 DUP3 GT ISZERO PUSH2 0x1F14 JUMPI PUSH1 0x0 DUP2 SSTORE PUSH1 0x1 ADD PUSH2 0x1F19 JUMP JUMPDEST PUSH1 0x1 PUSH1 0x1 PUSH1 0xE0 SHL SUB NOT DUP2 AND DUP2 EQ PUSH2 0xD78 JUMPI PUSH1 0x0 DUP1 REVERT JUMPDEST PUSH1 0x0 PUSH1 0x20 DUP3 DUP5 SUB SLT ISZERO PUSH2 0x1F55 JUMPI PUSH1 0x0 DUP1 REVERT JUMPDEST DUP2 CALLDATALOAD PUSH2 0x1516 DUP2 PUSH2 0x1F2D JUMP JUMPDEST PUSH1 0x0 JUMPDEST DUP4 DUP2 LT ISZERO PUSH2 0x1F7B JUMPI DUP2 DUP2 ADD MLOAD DUP4 DUP3 ADD MSTORE PUSH1 0x20 ADD PUSH2 0x1F63 JUMP JUMPDEST DUP4 DUP2 GT ISZERO PUSH2 0xDD5 JUMPI POP POP PUSH1 0x0 SWAP2 ADD MSTORE JUMP JUMPDEST PUSH1 0x0 DUP2 MLOAD DUP1 DUP5 MSTORE PUSH2 0x1FA4 DUP2 PUSH1 0x20 DUP7 ADD PUSH1 0x20 DUP7 ADD PUSH2 0x1F60 JUMP JUMPDEST PUSH1 0x1F ADD PUSH1 0x1F NOT AND SWAP3 SWAP1 SWAP3 ADD PUSH1 0x20 ADD SWAP3 SWAP2 POP POP JUMP JUMPDEST PUSH1 0x20 DUP2 MSTORE PUSH1 0x0 PUSH2 0x1516 PUSH1 0x20 DUP4 ADD DUP5 PUSH2 0x1F8C JUMP JUMPDEST PUSH1 0x0 PUSH1 0x20 DUP3 DUP5 SUB SLT ISZERO PUSH2 0x1FDD JUMPI PUSH1 0x0 DUP1 REVERT JUMPDEST POP CALLDATALOAD SWAP2 SWAP1 POP JUMP JUMPDEST PUSH1 0x1 PUSH1 0x1 PUSH1 0xA0 SHL SUB DUP2 AND DUP2 EQ PUSH2 0xD78 JUMPI PUSH1 0x0 DUP1 REVERT JUMPDEST PUSH1 0x0 DUP1 PUSH1 0x40 DUP4 DUP6 SUB SLT ISZERO PUSH2 0x200C JUMPI PUSH1 0x0 DUP1 REVERT JUMPDEST DUP3 CALLDATALOAD PUSH2 0x2017 DUP2 PUSH2 0x1FE4 JUMP JUMPDEST SWAP5 PUSH1 0x20 SWAP4 SWAP1 SWAP4 ADD CALLDATALOAD SWAP4 POP POP POP JUMP JUMPDEST PUSH4 0x4E487B71 PUSH1 0xE0 SHL PUSH1 0x0 MSTORE PUSH1 0x41 PUSH1 0x4 MSTORE PUSH1 0x24 PUSH1 0x0 REVERT JUMPDEST PUSH1 0x0 DUP3 PUSH1 0x1F DUP4 ADD SLT PUSH2 0x204C JUMPI PUSH1 0x0 DUP1 REVERT JUMPDEST DUP2 CALLDATALOAD PUSH8 0xFFFFFFFFFFFFFFFF DUP1 DUP3 GT ISZERO PUSH2 0x2067 JUMPI PUSH2 0x2067 PUSH2 0x2025 JUMP JUMPDEST PUSH1 0x40 MLOAD PUSH1 0x1F DUP4 ADD PUSH1 0x1F NOT SWAP1 DUP2 AND PUSH1 0x3F ADD AND DUP2 ADD SWAP1 DUP3 DUP3 GT DUP2 DUP4 LT OR ISZERO PUSH2 0x208F JUMPI PUSH2 0x208F PUSH2 0x2025 JUMP JUMPDEST DUP2 PUSH1 0x40 MSTORE DUP4 DUP2 MSTORE DUP7 PUSH1 0x20 DUP6 DUP9 ADD ADD GT ISZERO PUSH2 0x20A8 JUMPI PUSH1 0x0 DUP1 REVERT JUMPDEST DUP4 PUSH1 0x20 DUP8 ADD PUSH1 0x20 DUP4 ADD CALLDATACOPY PUSH1 0x0 PUSH1 0x20 DUP6 DUP4 ADD ADD MSTORE DUP1 SWAP5 POP POP POP POP POP SWAP3 SWAP2 POP POP JUMP JUMPDEST DUP1 CALLDATALOAD PUSH1 0xFF DUP2 AND DUP2 EQ PUSH2 0x20D9 JUMPI PUSH1 0x0 DUP1 REVERT JUMPDEST SWAP2 SWAP1 POP JUMP JUMPDEST PUSH1 0x0 DUP1 PUSH1 0x0 DUP1 PUSH1 0x0 PUSH1 0xA0 DUP7 DUP9 SUB SLT ISZERO PUSH2 0x20F6 JUMPI PUSH1 0x0 DUP1 REVERT JUMPDEST DUP6 CALLDATALOAD PUSH2 0x2101 DUP2 PUSH2 0x1FE4 JUMP JUMPDEST SWAP5 POP PUSH1 0x20 DUP7 ADD CALLDATALOAD PUSH8 0xFFFFFFFFFFFFFFFF DUP2 GT ISZERO PUSH2 0x211D JUMPI PUSH1 0x0 DUP1 REVERT JUMPDEST PUSH2 0x2129 DUP9 DUP3 DUP10 ADD PUSH2 0x203B JUMP JUMPDEST SWAP5 POP POP PUSH1 0x40 DUP7 ADD CALLDATALOAD SWAP3 POP PUSH1 0x60 DUP7 ADD CALLDATALOAD SWAP2 POP PUSH2 0x2146 PUSH1 0x80 DUP8 ADD PUSH2 0x20C8 JUMP JUMPDEST SWAP1 POP SWAP3 SWAP6 POP SWAP3 SWAP6 SWAP1 SWAP4 POP JUMP JUMPDEST PUSH1 0x0 DUP1 PUSH1 0x0 PUSH1 0x60 DUP5 DUP7 SUB SLT ISZERO PUSH2 0x2167 JUMPI PUSH1 0x0 DUP1 REVERT JUMPDEST DUP4 CALLDATALOAD PUSH2 0x2172 DUP2 PUSH2 0x1FE4 JUMP JUMPDEST SWAP3 POP PUSH1 0x20 DUP5 ADD CALLDATALOAD PUSH2 0x2182 DUP2 PUSH2 0x1FE4 JUMP JUMPDEST SWAP3 SWAP6 SWAP3 SWAP5 POP POP POP PUSH1 0x40 SWAP2 SWAP1 SWAP2 ADD CALLDATALOAD SWAP1 JUMP JUMPDEST PUSH1 0x0 PUSH1 0x20 DUP3 DUP5 SUB SLT ISZERO PUSH2 0x21A5 JUMPI PUSH1 0x0 DUP1 REVERT JUMPDEST DUP2 CALLDATALOAD PUSH2 0x1516 DUP2 PUSH2 0x1FE4 JUMP JUMPDEST DUP1 ISZERO ISZERO DUP2 EQ PUSH2 0xD78 JUMPI PUSH1 0x0 DUP1 REVERT JUMPDEST PUSH1 0x0 DUP1 PUSH1 0x40 DUP4 DUP6 SUB SLT ISZERO PUSH2 0x21D1 JUMPI PUSH1 0x0 DUP1 REVERT JUMPDEST DUP3 CALLDATALOAD PUSH2 0x21DC DUP2 PUSH2 0x1FE4 JUMP JUMPDEST SWAP2 POP PUSH1 0x20 DUP4 ADD CALLDATALOAD PUSH2 0x21EC DUP2 PUSH2 0x21B0 JUMP JUMPDEST DUP1 SWAP2 POP POP SWAP3 POP SWAP3 SWAP1 POP JUMP JUMPDEST DUP1 CALLDATALOAD PUSH1 0x1 PUSH1 0x1 PUSH1 0xD8 SHL SUB NOT DUP2 AND DUP2 EQ PUSH2 0x20D9 JUMPI PUSH1 0x0 DUP1 REVERT JUMPDEST PUSH1 0x0 PUSH1 0x20 DUP3 DUP5 SUB SLT ISZERO PUSH2 0x2221 JUMPI PUSH1 0x0 DUP1 REVERT JUMPDEST PUSH2 0x1516 DUP3 PUSH2 0x21F7 JUMP JUMPDEST PUSH1 0x0 DUP1 PUSH1 0x0 DUP1 PUSH1 0x80 DUP6 DUP8 SUB SLT ISZERO PUSH2 0x2240 JUMPI PUSH1 0x0 DUP1 REVERT JUMPDEST DUP5 CALLDATALOAD PUSH2 0x224B DUP2 PUSH2 0x1FE4 JUMP JUMPDEST SWAP4 POP PUSH1 0x20 DUP6 ADD CALLDATALOAD PUSH2 0x225B DUP2 PUSH2 0x1FE4 JUMP JUMPDEST SWAP3 POP PUSH1 0x40 DUP6 ADD CALLDATALOAD SWAP2 POP PUSH1 0x60 DUP6 ADD CALLDATALOAD PUSH8 0xFFFFFFFFFFFFFFFF DUP2 GT ISZERO PUSH2 0x227E JUMPI PUSH1 0x0 DUP1 REVERT JUMPDEST PUSH2 0x228A DUP8 DUP3 DUP9 ADD PUSH2 0x203B JUMP JUMPDEST SWAP2 POP POP SWAP3 SWAP6 SWAP2 SWAP5 POP SWAP3 POP JUMP JUMPDEST PUSH1 0x0 DUP1 PUSH1 0x40 DUP4 DUP6 SUB SLT ISZERO PUSH2 0x22A9 JUMPI PUSH1 0x0 DUP1 REVERT JUMPDEST PUSH2 0x22B2 DUP4 PUSH2 0x20C8 JUMP JUMPDEST SWAP2 POP PUSH2 0x22C0 PUSH1 0x20 DUP5 ADD PUSH2 0x21F7 JUMP JUMPDEST SWAP1 POP SWAP3 POP SWAP3 SWAP1 POP JUMP JUMPDEST PUSH1 0x0 DUP1 PUSH1 0x40 DUP4 DUP6 SUB SLT ISZERO PUSH2 0x22DC JUMPI PUSH1 0x0 DUP1 REVERT JUMPDEST DUP3 CALLDATALOAD PUSH2 0x22E7 DUP2 PUSH2 0x1FE4 JUMP JUMPDEST SWAP2 POP PUSH1 0x20 DUP4 ADD CALLDATALOAD PUSH2 0x21EC DUP2 PUSH2 0x1FE4 JUMP JUMPDEST PUSH1 0x1 DUP2 DUP2 SHR SWAP1 DUP3 AND DUP1 PUSH2 0x230B JUMPI PUSH1 0x7F DUP3 AND SWAP2 POP JUMPDEST PUSH1 0x20 DUP3 LT DUP2 SUB PUSH2 0x232B JUMPI PUSH4 0x4E487B71 PUSH1 0xE0 SHL PUSH1 0x0 MSTORE PUSH1 0x22 PUSH1 0x4 MSTORE PUSH1 0x24 PUSH1 0x0 REVERT JUMPDEST POP SWAP2 SWAP1 POP JUMP JUMPDEST PUSH1 0x1 PUSH1 0x1 PUSH1 0xA0 SHL SUB DUP5 DUP2 AND DUP3 MSTORE DUP4 AND PUSH1 0x20 DUP3 ADD MSTORE PUSH1 0x60 PUSH1 0x40 DUP3 ADD DUP2 SWAP1 MSTORE PUSH1 0x0 SWAP1 PUSH2 0x235D SWAP1 DUP4 ADD DUP5 PUSH2 0x1F8C JUMP JUMPDEST SWAP6 SWAP5 POP POP POP POP POP JUMP JUMPDEST PUSH1 0x0 DUP4 MLOAD PUSH2 0x2378 DUP2 DUP5 PUSH1 0x20 DUP9 ADD PUSH2 0x1F60 JUMP JUMPDEST PUSH1 0x60 SWAP4 SWAP1 SWAP4 SHL PUSH12 0xFFFFFFFFFFFFFFFFFFFFFFFF NOT AND SWAP2 SWAP1 SWAP3 ADD SWAP1 DUP2 MSTORE PUSH1 0x14 ADD SWAP3 SWAP2 POP POP JUMP JUMPDEST PUSH1 0x0 DUP3 MLOAD PUSH2 0x23AF DUP2 DUP5 PUSH1 0x20 DUP8 ADD PUSH2 0x1F60 JUMP JUMPDEST SWAP2 SWAP1 SWAP2 ADD SWAP3 SWAP2 POP POP JUMP JUMPDEST PUSH1 0x0 PUSH1 0x20 DUP3 DUP5 SUB SLT ISZERO PUSH2 0x23CB JUMPI PUSH1 0x0 DUP1 REVERT JUMPDEST DUP2 MLOAD PUSH2 0x1516 DUP2 PUSH2 0x21B0 JUMP JUMPDEST PUSH1 0x20 DUP1 DUP3 MSTORE PUSH1 0x31 SWAP1 DUP3 ADD MSTORE PUSH32 0x4552433732313A207472616E736665722063616C6C6572206973206E6F74206F PUSH1 0x40 DUP3 ADD MSTORE PUSH17 0x1DDB995C881B9BDC88185C1C1C9BDD9959 PUSH1 0x7A SHL PUSH1 0x60 DUP3 ADD MSTORE PUSH1 0x80 ADD SWAP1 JUMP JUMPDEST PUSH1 0x20 DUP1 DUP3 MSTORE DUP2 DUP2 ADD MSTORE PUSH32 0x4F776E61626C653A2063616C6C6572206973206E6F7420746865206F776E6572 PUSH1 0x40 DUP3 ADD MSTORE PUSH1 0x60 ADD SWAP1 JUMP JUMPDEST PUSH1 0x0 DUP4 MLOAD PUSH2 0x246E DUP2 DUP5 PUSH1 0x20 DUP9 ADD PUSH2 0x1F60 JUMP JUMPDEST DUP4 MLOAD SWAP1 DUP4 ADD SWAP1 PUSH2 0x2482 DUP2 DUP4 PUSH1 0x20 DUP9 ADD PUSH2 0x1F60 JUMP JUMPDEST ADD SWAP5 SWAP4 POP POP POP POP JUMP JUMPDEST PUSH1 0x0 DUP1 DUP5 SLOAD DUP2 PUSH1 0x1 DUP3 DUP2 SHR SWAP2 POP DUP1 DUP4 AND DUP1 PUSH2 0x24A7 JUMPI PUSH1 0x7F DUP4 AND SWAP3 POP JUMPDEST PUSH1 0x20 DUP1 DUP5 LT DUP3 SUB PUSH2 0x24C6 JUMPI PUSH4 0x4E487B71 PUSH1 0xE0 SHL DUP7 MSTORE PUSH1 0x22 PUSH1 0x4 MSTORE PUSH1 0x24 DUP7 REVERT JUMPDEST DUP2 DUP1 ISZERO PUSH2 0x24DA JUMPI PUSH1 0x1 DUP2 EQ PUSH2 0x24EB JUMPI PUSH2 0x2518 JUMP JUMPDEST PUSH1 0xFF NOT DUP7 AND DUP10 MSTORE DUP5 DUP10 ADD SWAP7 POP PUSH2 0x2518 JUMP JUMPDEST PUSH1 0x0 DUP12 DUP2 MSTORE PUSH1 0x20 SWAP1 KECCAK256 PUSH1 0x0 JUMPDEST DUP7 DUP2 LT ISZERO PUSH2 0x2510 JUMPI DUP2 SLOAD DUP12 DUP3 ADD MSTORE SWAP1 DUP6 ADD SWAP1 DUP4 ADD PUSH2 0x24F7 JUMP JUMPDEST POP POP DUP5 DUP10 ADD SWAP7 POP JUMPDEST POP POP POP POP POP POP PUSH2 0x2531 DUP2 DUP6 PUSH1 0x1 PUSH1 0x1 PUSH1 0xD8 SHL SUB NOT AND SWAP1 MSTORE JUMP JUMPDEST PUSH12 0x16B1B7B73334B3973539B7B7 PUSH1 0xA1 SHL PUSH1 0x5 DUP3 ADD MSTORE PUSH1 0x11 ADD SWAP5 SWAP4 POP POP POP POP JUMP JUMPDEST PUSH1 0x0 PUSH1 0x20 DUP3 DUP5 SUB SLT ISZERO PUSH2 0x2563 JUMPI PUSH1 0x0 DUP1 REVERT JUMPDEST DUP2 MLOAD PUSH2 0x1516 DUP2 PUSH2 0x1FE4 JUMP JUMPDEST PUSH4 0x4E487B71 PUSH1 0xE0 SHL PUSH1 0x0 MSTORE PUSH1 0x11 PUSH1 0x4 MSTORE PUSH1 0x24 PUSH1 0x0 REVERT JUMPDEST PUSH1 0x0 DUP3 NOT DUP3 GT ISZERO PUSH2 0x2597 JUMPI PUSH2 0x2597 PUSH2 0x256E JUMP JUMPDEST POP ADD SWAP1 JUMP JUMPDEST PUSH1 0x0 DUP3 DUP3 LT ISZERO PUSH2 0x25AE JUMPI PUSH2 0x25AE PUSH2 0x256E JUMP JUMPDEST POP SUB SWAP1 JUMP JUMPDEST PUSH1 0x20 DUP1 DUP3 MSTORE PUSH1 0x32 SWAP1 DUP3 ADD MSTORE PUSH32 0x4552433732313A207472616E7366657220746F206E6F6E204552433732315265 PUSH1 0x40 DUP3 ADD MSTORE PUSH18 0x31B2B4BB32B91034B6B83632B6B2B73A32B9 PUSH1 0x71 SHL PUSH1 0x60 DUP3 ADD MSTORE PUSH1 0x80 ADD SWAP1 JUMP JUMPDEST PUSH1 0x1 PUSH1 0x1 PUSH1 0xA0 SHL SUB DUP6 DUP2 AND DUP3 MSTORE DUP5 AND PUSH1 0x20 DUP3 ADD MSTORE PUSH1 0x40 DUP2 ADD DUP4 SWAP1 MSTORE PUSH1 0x80 PUSH1 0x60 DUP3 ADD DUP2 SWAP1 MSTORE PUSH1 0x0 SWAP1 PUSH2 0x2638 SWAP1 DUP4 ADD DUP5 PUSH2 0x1F8C JUMP JUMPDEST SWAP7 SWAP6 POP POP POP POP POP POP JUMP JUMPDEST PUSH1 0x0 PUSH1 0x20 DUP3 DUP5 SUB SLT ISZERO PUSH2 0x2654 JUMPI PUSH1 0x0 DUP1 REVERT JUMPDEST DUP2 MLOAD PUSH2 0x1516 DUP2 PUSH2 0x1F2D JUMP JUMPDEST PUSH1 0x0 PUSH1 0x1 DUP3 ADD PUSH2 0x2671 JUMPI PUSH2 0x2671 PUSH2 0x256E JUMP JUMPDEST POP PUSH1 0x1 ADD SWAP1 JUMP JUMPDEST PUSH4 0x4E487B71 PUSH1 0xE0 SHL PUSH1 0x0 MSTORE PUSH1 0x12 PUSH1 0x4 MSTORE PUSH1 0x24 PUSH1 0x0 REVERT JUMPDEST PUSH1 0x0 DUP3 PUSH2 0x269D JUMPI PUSH2 0x269D PUSH2 0x2678 JUMP JUMPDEST POP DIV SWAP1 JUMP JUMPDEST PUSH1 0x0 DUP3 PUSH2 0x26B1 JUMPI PUSH2 0x26B1 PUSH2 0x2678 JUMP JUMPDEST POP MOD SWAP1 JUMP JUMPDEST PUSH4 0x4E487B71 PUSH1 0xE0 SHL PUSH1 0x0 MSTORE PUSH1 0x32 PUSH1 0x4 MSTORE PUSH1 0x24 PUSH1 0x0 REVERT INVALID 0x4D PUSH6 0x74615472616E PUSH20 0x616374696F6E2875696E74323536206E6F6E6365 0x2C PUSH2 0x6464 PUSH19 0x6573732066726F6D2C62797465732066756E63 PUSH21 0x696F6E5369676E617475726529A264697066735822 SLT KECCAK256 0xB4 CODESIZE 0xBC LOG0 SWAP7 SWAP1 CODECOPY DUP4 CALLDATASIZE 0xC1 0xEC SWAP1 0xBC PUSH9 0xB4CC969AA8004B1155 0xB0 ORIGIN 0xC6 PUSH9 0x40A3E23C7E64736F6C PUSH4 0x4300080D STOP CALLER ",
  "sha1": "e475ab379ef558b9af0280c07b06144b22b1a3d5",
  "source": "// SPDX-License-Identifier: MIT\n\npragma solidity ^0.8.0;\n\nimport \"@openzeppelin/contracts/token/ERC20/ERC20.sol\";\nimport \"@openzeppelin/contracts/token/ERC721/ERC721.sol\";\nimport \"@openzeppelin/contracts/token/ERC721/extensions/ERC721URIStorage.sol\";\nimport \"@openzeppelin/contracts/utils/Counters.sol\";\nimport \"@openzeppelin/contracts/access/Ownable.sol\";\n\nimport \"./common/meta-transactions/ContentMixin.sol\";\nimport \"./common/meta-transactions/NativeMetaTransaction.sol\";\n\ncontract OwnableDelegateProxy {}\n\ncontract ProxyRegistry {\n    mapping(address => OwnableDelegateProxy) public proxies;\n}\n\ncontract Weth is ERC20 {\n    constructor() ERC20(\"Weth\", \"WETH\") {\n        _mint(msg.sender, 1000 * 10**uint256(decimals()));\n    }\n}\n\ncontract deployed {\n    function transferFrom(\n        address from,\n        address to,\n        uint256 amount\n    ) external returns (bool) {}\n}\n\n// W3rdle smart contract\ncontract W3rdl3 is\n    ERC721URIStorage,\n    Ownable,\n    ContextMixin,\n    NativeMetaTransaction\n{\n    using Counters for Counters.Counter;\n    Counters.Counter public _tokenId;\n\n    uint256 public ongoingMintPrice;\n    address proxyRegistryAddress;\n    mapping(address => bool) public minterMap;\n    mapping(bytes5 => bool) public wordMap;\n    mapping(uint8 => uint256) private rebates;\n    string private baseURI;\n    Weth weth;\n\n    constructor(\n        string memory _name,\n        string memory _symbol,\n        string memory _baseURI,\n        uint256 _ongoingMintPrice,\n        address _wethAddress,\n        address _proxyRegistryAddress\n    ) ERC721(_name, _symbol) {\n        baseURI = _baseURI;\n        ongoingMintPrice = _ongoingMintPrice;\n        weth = Weth(_wethAddress);\n        _tokenId.increment();\n        _initializeEIP712(_name);\n\n        proxyRegistryAddress = _proxyRegistryAddress;\n\n        rebates[1] = 0.0005 ether;\n        rebates[2] = 0.0004 ether;\n        rebates[3] = 0.0003 ether;\n        rebates[4] = 0.0002 ether;\n        rebates[5] = 0.0001 ether;\n    }\n\n    function mintPriceCheck() internal {\n        if (_tokenId.current() & 0x3FF == 0) {\n            ongoingMintPrice += 0.001 ether;\n        }\n    }\n\n    function register() public payable {\n        require(\n            weth.transferFrom(tx.origin, address(this), ongoingMintPrice),\n            \"Failed: Please pay the appropriate ONGOINT_MINT_PRICE fee\"\n        );\n        minterMap[msg.sender] = true;\n        mintPriceCheck();\n    }\n\n    function mintWord(uint8 tries, bytes5 word)\n        public\n        payable\n        returns (uint256)\n    {\n        require(\n            minterMap[msg.sender] == true,\n            \"Player not allowed to mint. Please pay the appropriate ONGOINT_MINT_PRICE fee before minting\"\n        );\n        require(\n            wordMap[word] == false,\n            \"The word has already been minted by another player\"\n        );\n        require(msg.sender == tx.origin, \"No Bots\"); // block smart contracts from minting\n\n        minterMap[msg.sender] = false;\n        wordMap[word] = true;\n\n        uint256 newItemId = _tokenId.current();\n        string memory _tokenURI;\n\n        _tokenId.increment();\n        _tokenURI = string(bytes.concat(bytes(baseURI), word, \"-config.json\"));\n\n        _safeMint(msg.sender, newItemId);\n        _setTokenURI(newItemId, _tokenURI);\n\n        if (rebates[tries] > 0) {\n            payable(msg.sender).transfer(rebates[tries]);\n        }\n        return newItemId;\n    }\n\n    function withdraw(uint256 amount) public payable onlyOwner {\n        payable(msg.sender).transfer(amount);\n    }\n\n    function withdrawAll() public payable onlyOwner {\n        payable(msg.sender).transfer(address(this).balance);\n    }\n\n    // Override approval to save gas\n    function isApprovedForAll(address owner, address operator)\n        public\n        view\n        override\n        returns (bool)\n    {\n        ProxyRegistry proxyRegistry = ProxyRegistry(proxyRegistryAddress);\n        if (address(proxyRegistry.proxies(owner)) == operator) {\n            return true;\n        }\n\n        return super.isApprovedForAll(owner, operator);\n    }\n\n    // Make opensea proxy pay for some txns\n    function _msgSender() internal view override returns (address sender) {\n        return ContextMixin.msgSender();\n    }\n}\n\n//  ██▀███   ██▓  ▄████  ▒█████   ██▀███   ██▓ ██▓     ██▓    ▄▄▄\n// ▓██ ▒ ██▒▓██▒ ██▒ ▀█▒▒██▒  ██▒▓██ ▒ ██▒▓██▒▓██▒    ▓██▒   ▒████▄\n// ▓██ ░▄█ ▒▒██▒▒██░▄▄▄░▒██░  ██▒▓██ ░▄█ ▒▒██▒▒██░    ▒██░   ▒██  ▀█▄\n// ▒██▀▀█▄  ░██░░▓█  ██▓▒██   ██░▒██▀▀█▄  ░██░▒██░    ▒██░   ░██▄▄▄▄██\n// ░██▓ ▒██▒░██░░▒▓███▀▒░ ████▓▒░░██▓ ▒██▒░██░░██████▒░██████▒▓█   ▓██▒\n// ░ ▒▓ ░▒▓░░▓   ░▒   ▒ ░ ▒░▒░▒░ ░ ▒▓ ░▒▓░░▓  ░ ▒░▓  ░░ ▒░▓  ░▒▒   ▓▒█░\n//   ░▒ ░ ▒░ ▒ ░  ░   ░   ░ ▒ ▒░   ░▒ ░ ▒░ ▒ ░░ ░ ▒  ░░ ░ ▒  ░ ▒   ▒▒ ░\n//   ░░   ░  ▒ ░░ ░   ░ ░ ░ ░ ▒    ░░   ░  ▒ ░  ░ ░     ░ ░    ░   ▒\n//    ░      ░        ░     ░ ░     ░      ░      ░  ░    ░  ░     ░  ░\n",
  "sourcePath": "contracts/W3rdl3.sol",
  "type": "contract"
}